:020000040800F2
:100000000000022005230008451D00084B1D0008C4
:10001000511D0008571D00085D1D0008000000006C
:10002000000000000000000000000000631D000848
:10003000711D0008000000007F1D00088D1D0008D4
:1000400055230008552300085523000855230008B0
:100050005523000855230008D91D00085523000822
:100060005523000855230008552300085523000890
:100070005523000855230008552300085523000880
:100080005523000855230008552300085523000870
:10009000E91D0008552300085523000855230008D2
:1000A0005523000855230008552300085523000850
:1000B0005523000855230008552300085523000840
:1000C0005523000855230008552300085523000830
:1000D000552300085523000855230008611E000819
:1000E0005523000855230008552300085523000810
:1000F0005523000855230008552300085523000800
:1001000055230008552300085523000855230008EF
:1001100055230008552300085523000855230008DF
:1001200055230008552300085523000855230008CF
:1001300055230008000000000000000055230008BF
:10014000811E000855230008552300085523000888
:10015000552300085523000855230008552300089F
:10016000552300085523000855230008552300088F
:10017000552300085523000800000000000000007F
:08018000552300085523000877
:1001900010B5054C237833B9044B13B10448AFF3C1
:1001A00000800123237010BD9C000020000000008F
:1001B0003467000808B5034B1BB103490348AFF38C
:1001C000008008BD00000000A00000203467000887
:1001D00001F0FF01102A2BDB10F0070F08D010F8F8
:1001E000013B013A8B422DD010F0070F42B3F6D1FC
:1001F000F0B441EA012141EA014122F007047FF015
:1002000000070023F0E80256083C85EA010586EA6B
:10021000010685FA47F5A3FA87F586FA47F6A5FAA7
:1002200087F68EB9EED1F0BC01F0FF0102F00702B3
:1002300032B110F8013B013A83EA010313B1F8D15E
:100240000020704701387047002D06BF354603383F
:10025000073815F0010F07D1013015F4807F02BF78
:10026000013015F4C03F0130F0BC0138704700BFC9
:1002700053B94AB9002908BF00281CBF4FF0FF310D
:100280004FF0FF3000F074B9ADF1080C6DE904CE09
:1002900000F006F8DDF804E0DDE9022304B0704761
:1002A0002DE9F047089D04468E46002B4DD18A4229
:1002B000944669D9B2FA82F252B101FA02F3C2F15C
:1002C000200120FA01F10CFA02FC41EA030E9440ED
:1002D0004FEA1C48210CBEFBF8F61FFA8CF708FB0E
:1002E00016E341EA034306FB07F199420AD91CEBE6
:1002F000030306F1FF3080F01F81994240F21C8118
:10030000023E63445B1AA4B2B3FBF8F008FB10335F
:1003100044EA034400FB07F7A7420AD91CEB040494
:1003200000F1FF3380F00A81A74240F20781644464
:10033000023840EA0640E41B00261DB1D4400023E9
:10034000C5E900433146BDE8F0878B4209D9002D4D
:1003500000F0EF800026C5E9000130463146BDE8D7
:10036000F087B3FA83F6002E4AD18B4202D3824241
:1003700000F2F980841A61EB030301209E46002DF0
:10038000E0D0C5E9004EDDE702B9FFDEB2FA82F245
:10039000002A40F09280A1EB0C014FEA1C471FFAA3
:1003A0008CFE0126200CB1FBF7F307FB131140EA8A
:1003B00001410EFB03F0884208D91CEB010103F157
:1003C000FF3802D2884200F2CB804346091AA4B219
:1003D000B1FBF7F007FB101144EA01440EFB00FEED
:1003E000A64508D91CEB040400F1FF3102D2A64552
:1003F00000F2BB800846A4EB0E0440EA03409CE7F1
:10040000C6F12007B34022FA07FC4CEA030C20FA9D
:1004100007F401FA06F31C43F9404FEA1C4900FABD
:1004200006F3B1FBF9F8200C1FFA8CFE09FB18113A
:1004300040EA014108FB0EF0884202FA06F20BD9AD
:100440001CEB010108F1FF3A80F08880884240F2FD
:100450008580A8F102086144091AA4B2B1FBF9F041
:1004600009FB101144EA014100FB0EFE8E4508D93C
:100470001CEB010100F1FF346CD28E456AD90238C1
:10048000614440EA0840A0FB0294A1EB0E01A142A6
:10049000C846A64656D353D05DB1B3EB080261EB14
:1004A0000E0101FA07F722FA06F3F1401F43C5E9EE
:1004B000007100263146BDE8F087C2F12003D84024
:1004C0000CFA02FC21FA03F3914001434FEA1C4766
:1004D0001FFA8CFEB3FBF7F007FB10360B0C43EA58
:1004E000064300FB0EF69E4204FA02F408D91CEB08
:1004F000030300F1FF382FD29E422DD90238634406
:100500009B1B89B2B3FBF7F607FB163341EA0341A5
:1005100006FB0EF38B4208D91CEB010106F1FF38F4
:1005200016D28B4214D9023E6144C91A46EA0046EB
:1005300038E72E46284605E70646E3E61846F8E67D
:100540004B45A9D2B9EB020864EB0C0E0138A3E7C6
:100550004646EAE7204694E74046D1E7D0467BE7A7
:10056000023B614432E7304609E76444023842E71F
:10057000704700BF80B584B000AF78603960002359
:10058000FB7300237B730023BB73924B1B78012BFF
:1005900002D1904B00221A708E4B1B78002B40F03A
:1005A000A9818D4B03F580531A467B68D3608A4B33
:1005B00003F5805300221A723B681B78002B05D18B
:1005C000854B03F5805300221A7293E1824B03F5A9
:1005D0008053DA68814B1B689A4205D07E4B03F545
:1005E000805300221A7285E13B681B7803F0F00308
:1005F000302B16D0302B20DC202B18D0202B1CDCED
:10060000002B02D0102B06D017E0734B03F580535C
:1006100000225A7212E0704B03F5805310225A7276
:100620000CE06D4B03F5805330225A7206E06A4BA2
:1006300003F5805320225A7200E000BF664B03F599
:1006400080535B7A002B58D13B685A78624B1A7002
:100650004FF480520021624804F050FE0023FB73E7
:100660000BE0FB7B3A681A44FB7B11785A4A13442F
:100670000A465A70FB7B0133FB733B681B78FA7B9D
:100680009A42EED93B681B789AB2534B03F58053DC
:100690009A80514B1B787B730023FB730DE0FB7B2F
:1006A000504ADB0013441B797A7B9A4202D1012322
:1006B000BB7305E0FB7B0133FB73FB7B022BEED9A5
:1006C000BB7B002B06D0FB7B464A52F833304248B6
:1006D00098470FE1404B03225A703F4B7F229A709C
:1006E0003D4B1A783C4BDA703B4B11221A713A4B56
:1006F00003F5805302221A72FCE0374B03F5805356
:100700005B7A102B53D13B689A78334B1A704FF4B5
:1007100080520021324804F0F1FD3B681B789AB208
:100720002D4B03F580539A802B4B03F580539B8808
:100730001B029AB2284B03F580539A80264B03F58F
:1007400080539A883B6801331B789BB213439AB25B
:10075000214B03F580539A801F4B03F580539B88F0
:10076000C3F30B039AB21C4B03F580539A8000230A
:10077000FB730DE0FB7B02333A681A44FB7B0133C9
:100780001178154A13440A465A70FB7B0133FB73F8
:10079000FB7B052BEED9144B07221A800E4B03F579
:1007A000805301221A720B4B01221A70A2E00A4BED
:1007B00003F580535B7A302B00F09C80064B03F5E9
:1007C00080535B7A202B40F08D80084B00221A80EA
:1007D00024E000BF08000020D0040020000000201A
:1007E000D104002084670008CC040020CE0400203F
:1007F000424B1B8801333A681A44404B1B88194608
:100800003F4B1B880B4411783E4A13440A465A70EA
:100810003A4B1B8801339AB2384B1A80374B1B88EE
:10082000062BE5D9364B1A88344B1B8813449AB2F1
:10083000334B1A80334B03F580539A88304B1B8817
:100840009A4246D82F4B1B787B730023FB7320E022
:10085000FB7B2D4ADB0013441B797A7B9A4202D141
:100860000123BB7318E07B7BA3F14002FB7B26498D
:10087000DB000B441B799A4208D1224B1B78403B8A
:10088000DAB2204B1A700123BB7305E0FB7B013306
:10089000FB73FB7B022BDBD9BB7B002B06D0FB7BE6
:1008A000194A52F833301748984723E0154B032272
:1008B0005A70144B7F229A70124B1A78114BDA70CF
:1008C000104B11221A710F4B03F5805302221A723A
:1008D00010E00C4B03F5805301221A720B4B0122DE
:1008E0001A7007E0074B03F5805300221A72074B7A
:1008F00001221A7000BF1037BD4680BDCE04002013
:10090000CC040020D00400208467000808000020E8
:1009100080B400AF2C4B03F580535B7A002B16D1CB
:10092000294B03F580531B7A002B47D0264B03F548
:1009300080531B7A022B41D1234B03225A70224B46
:100940007F229A70204B1A781F4BDA7036E01E4BCC
:1009500003F580535B7A102B03D11B4B30225A7066
:100960002CE0194B03F580535B7A302B26D0164BC5
:1009700003F580535B7A202B20D1134B03F5805372
:100980009A88124B1B889A4202D90F4B20225A7028
:100990000D4B03F580531B7A002B0FD00A4B03F548
:1009A00080531B7A022B09D1074B03225A70064B46
:1009B0007F229A70044B1A78034BDA7000BFBD4651
:1009C0005DF8047B704700BFD0040020CC040020F9
:1009D00080B483B000AF0023FB80134B1B683B60E7
:1009E000124B07225A70114B1B784033DAB20F4B6F
:1009F0009A703B681B0EDAB20C4B5A713B681B0CA9
:100A0000DAB20A4B9A713B681B0ADAB2074BDA7109
:100A10003B68DAB2054B1A72FB8818460C37BD46A4
:100A20005DF8047B704700BF00000020D004002068
:100A300080B483B000AF0023FB80134B1B683B6086
:100A4000124B07225A70114B1B784033DAB20F4B0E
:100A50009A703B681B0EDAB20C4B5A713B681B0C48
:100A6000DAB20A4B9A713B681B0ADAB2074BDA71A9
:100A70003B68DAB2054B1A72FB8818460C37BD4644
:100A80005DF8047B704700BF04000020D004002004
:100A900080B483B000AF0023FB80284B1B88002B61
:100AA00003D13323FB80FB8842E000233B60244BCF
:100AB0005B793B603B681B06214A927913433B609C
:100AC0003B681B041E4AD27913433B603B681B0200
:100AD0001B4A127A13433B603B6840F2FF72934219
:100AE0008CBF01230023DAB23B68002B0CBF01232B
:100AF0000023DBB21343DBB2002B03D03123FB8096
:100B0000FB8815E00F4B1B683A689A4203D12223F9
:100B1000FB80FB880CE00C4A3B681360084B012209
:100B20005A70074B1B784033DAB2054B9A70FB883A
:100B300018460C37BD465DF8047B7047C80000209E
:100B4000D0040020040000200000002080B483B006
:100B500000AF0023FB80284B1B88002B03D13323DD
:100B6000FB80FB8842E000233B60244B5B793B60C9
:100B70003B681B06214A927913433B603B681B0488
:100B80001E4AD27913433B603B681B021B4A127A10
:100B900013433B603B6840F2FF7293428CBF0123DA
:100BA0000023DAB23B68002B0CBF01230023DBB229
:100BB0001343DBB2002B03D03123FB80FB8815E00D
:100BC0000F4B1B683A689A4203D12223FB80FB88B3
:100BD0000CE00C4A3B681360084B01225A70074B2B
:100BE0001B784033DAB2054B9A70FB8818460C37F5
:100BF000BD465DF8047B7047C8000020D00400208B
:100C0000000000200400002080B483B000AF002367
:100C1000FB80FB8818460C37BD465DF8047B7047A7
:100C200080B483B000AF0023BB80184B1B88002B1F
:100C300003D13323BB80BB8821E00023FB800AE083
:100C4000FB881A1DFB8812490A445178114AD15475
:100C5000FB880133FB80FA880D4B03F580539B889A
:100C6000033B9A42ECDB0A4B01225A70084B1B787B
:100C70004033DAB2064B9A700023BB80BB8818461B
:100C80000C37BD465DF8047B704700BFC8000020EC
:100C9000D0040020CC00002080B582B000AF00233B
:100CA000FB80534B06225A70514B1B784033DAB20B
:100CB0004F4B9A7004F02AFB0346DAB24C4B1A7180
:100CC00004F024FB0346DAB2494B5A7104F01EFBD0
:100CD0000346DAB2464B9A7104F018FB0346DAB2C7
:100CE000434BDA71424B1A79414B5B795340DAB28C
:100CF000404B1A703E4B5A793D4B9B791344DAB204
:100D00003C4B5A703A4B9A79394BDB795340DAB203
:100D1000384B9A70364BDA79354B1B791344DAB27B
:100D2000344BDA70324B1A79314B5B791343DAB2B8
:100D3000304B1A712E4B5A792D4B9B791344DAB2F2
:100D40002C4B5A712A4B9A79294BDB791343DAB22F
:100D5000284B9A71264BDA79254B1B791344DAB26A
:100D6000244BDA71224B1A79214B5B791340DAB2AA
:100D7000204B1A721E4B5A791D4B9B791344DAB2E1
:100D80001C4B5A721A4B9A79194BDB791340DAB221
:100D9000184B9A72164BDA79154B1B791344DAB259
:100DA000144BDA72124B1A79114B5B79D31ADAB2FF
:100DB000104B1A730E4B5A790D4B9B791344DAB2D0
:100DC0000C4B5A730A4B9A79094BDB79D31ADAB276
:100DD000084B9A73064BDA79054B1B791344DAB248
:100DE000044BDA73FB8818460837BD4680BD00BF48
:100DF000D0040020B800002080B487B000AF0023EA
:100E0000FB8200237B75314B1B793B712F4B5B7948
:100E10007B712E4B9B79BB712C4BDB79FB712B4B80
:100E20001B7A3B72294B5B7A7B72284B9B7ABB7295
:100E3000264BDB7AFB72254B1B7B3B73234B5B7B87
:100E40007B73224B9B7BBB73204BDB7BFB731F4B6A
:100E50001B7C3B741D4B5B7C7B741C4B9B7CBB7471
:100E60001A4BDB7CFB7400237B750CE07B7D183315
:100E70003B4413F8142C7B7D1549CB5C9A4206D178
:100E80007B7D01337B757B7D0F2BEFD900E000BFAD
:100E90007B7D0F2B02D83523FB820FE00D4B41F2F7
:100EA00088321A80094B02225A70084B1B78403353
:100EB000DAB2064B9A70054B0222DA70FB8A1846AA
:100EC0001C37BD465DF8047B704700BFD00400208E
:100ED000B8000020C800002080B584B000AF786062
:100EE00000237B810023FB730023BB7300233B8122
:100EF0007B6803F580539B88032B02D01323FB737D
:100F00002EE07B68DB787B817B891B027B817B68A1
:100F10001B799AB27B8913437B810023BB730AE060
:100F20002A4ABB7B9B0013441B887A899A4208D0CB
:100F3000BB7B0133BB73BB7B9BB203229342EFD3DA
:100F400000E000BFBB7B9BB20322934202D331235C
:100F5000FB7305E01D4ABB7B9B0013449B787B73AE
:100F6000FB7B002B1FD17B7B194A52F8233098471B
:100F700003463B813B89332B0CD0332B10DC002BF9
:100F800002D0222B09D00BE07B6803F580530122AD
:100F90001A7209E03323FB7306E02223FB7303E09C
:100FA0001023FB7300E000BFFB7B002B07D07B68A6
:100FB000FA7B1A717B6803F5805302221A72054B83
:100FC00001221A7000BF1037BD4680BDBC67000803
:100FD0009C6700080800002080B584B000AF7860EE
:100FE00000233B730023FB730023BB7300237B812F
:100FF0007B6803F580539B88062B02D90023FB7383
:1010000018E07B6803F580539B88022B06D04F4B7A
:101010001B78002B02D11323FB730BE07B6803F5D5
:1010200080539B88062B05D0484B1B78012B01D1A0
:101030001323FB73FB7B002B4BD17B68DB783B736B
:101040000023BB730BE0424ABB7B9B0013441A880E
:101050003B7B9BB29A4208D0BB7B0133BB73BB7B0B
:101060009BB202229342EED300E000BFBB7B9BB257
:101070000222934202D33123FB732AE03B7B03F02D
:101080000103DBB2002B06D1304B1B78002B02D1C1
:101090002423FB731DE03B7B03F00103DBB2002B39
:1010A00006D02A4B1B78012B02D12423FB7310E0BE
:1010B000264B1B78002B03D1244B01221A7002E02F
:1010C000224B00221A70224ABB7B9B0013449B7860
:1010D0007B73FB7B002B26D17B7B1E4A52F823308F
:1010E000984703467B817B89352B10D0352B17DC45
:1010F000332B0FD0332B13DC002B02D0222B0CD040
:101100000EE07B6803F5805301221A720CE0352350
:10111000FB7309E03323FB7306E02223FB7303E038
:101120001023FB7300E000BFFB7B002B07D07B6824
:10113000FA7B1A717B6803F5805302221A72064B00
:1011400001221A7000BF1037BD4680BDE014002098
:10115000C86700089C6700080800002080B584B0BC
:1011600000AF786000237B810023FB730023BB73F7
:1011700000233B817B6803F580539B88032B02D8B7
:101180001323FB733CE07B68DB787B817B891B024C
:101190007B817B681B799AB27B8913437B81002317
:1011A000BB730AE0354ABB7B9B0013441B887A89DA
:1011B0009A4208D0BB7B0133BB73BB7B9BB203223B
:1011C0009342EFD300E000BFBB7B9BB2032293426C
:1011D00002D33123FB7305E0284ABB7B9B001344F9
:1011E0009B787B737B6803F580539A882349BB7B8C
:1011F0009B000B44DB789BB29A4201D21323FB7312
:10120000FB7B002B26D17B7B1D4A52F8233098476D
:1012100003463B813B89332B10D0332B17DC312B1A
:101220000FD0312B13DC002B02D0222B0CD00EE080
:101230007B6803F5805301221A720CE03323FB73A1
:1012400009E03123FB7306E02223FB7303E0102344
:10125000FB7300E000BFFB7B002B07D07B68FA7BB1
:101260001A717B6803F5805302221A72054B012222
:101270001A7000BF1037BD4680BD00BFD0670008A0
:101280009C6700080800002080B582B000AF0023F2
:10129000BB8000237B8001F05FF800F051F900F083
:1012A0004FFA00F0B7F900F0EBF900F01FFA944B99
:1012B0001B68184600F0D4FA924B1B68184600F0E1
:1012C00007FB914B1B68DA688F4B1B6842F02002CA
:1012D000DA6002218D4802F081FA0346002B1DD10D
:1012E000142000F0F5FB8A4800F02AFB00BF022121
:1012F000864802F073FA0346002BF8D0804B1B6837
:10130000184600F0ADFA7F4B1B68184600F0E0FA73
:10131000804800F015FB142000F0DAFB7E4B1B78B0
:10132000002BD6D0322000F0D3FB7C4800F008FB25
:101330007B4B1B88072B22D8794B1B88DAB2794B61
:101340001A700123FB8009E0FB885A1EFB88724952
:10135000895C744AD154FB880133FB80FB88072BDE
:10136000F2D9714B1B689BB26E49184600F002FB24
:101370006E4B6C4A6C496E4801F0A4FAB6E000234B
:10138000BB806C4B00221A706B4B00221A8000232A
:101390007B80634B1B88063B9AB2674B1A80664B77
:1013A0001A88664BA3FB0213D11A49080B4499080B
:1013B0000B46DB005B1AD31A9BB2002B0CD15E4BA1
:1013C0001A885E4BA3FB0213D21A520813449B08DF
:1013D0009AB2594B1A8011E0574B1A88574BA3FB0E
:1013E0000213D21A520813449B089AB2524B1A8025
:1013F000514B1B8801339AB24F4B1A80484B1B88C4
:101400001B0A9BB2DBB21033DBB203F01F03DAB26C
:10141000444B1A70424B1B88DAB2424B5A703E4B17
:101420001A78404B9A703C4B5A783E4BDA703A4BE4
:101430009A783C4B1A71384BDA783A4B5A71364BE2
:101440001A79384B9A71344B5A79364BDA71364BDC
:101450001B689BB23349184600F08CFA334B314A73
:101460003149334801F02EFA0623BB803AE0314B74
:101470001B78012B36D12F4B00221A707B88DBB2F0
:1014800003F00F03DBB22033DAB2264B1A700023CD
:10149000FB800BE0FA88BB881A44FB8801331E49A5
:1014A000895C204AD154FB880133FB80FB88062BE2
:1014B000F0D9BB880733BB801B4B1B689BB2194913
:1014C000184600F057FA194B164A1749184801F008
:1014D000F9F9194B1B88013B9AB2174B1A807B888C
:1014E00001337B80144B1B88002BC0D14FF48052FA
:1014F0000021094803F002FF094B00221A80E8E6A8
:1015000000000020040000203415002000000240EC
:101510004C670008546700083C160020606700080C
:1015200038160020402600207815002030160020B4
:10153000E414002062260020602600202549922421
:1015400080B594B000AF07F1200330220021184687
:1015500003F0D4FE07F10C0300221A605A609A606F
:10156000DA601A610023BB60284B1B6C274A43F0EA
:1015700080531364254B1B6C03F08053BB60BB6826
:1015800000237B60224B1B68214A43F48043136095
:101590001F4B1B6803F480437B607B6802233B6224
:1015A0000123FB6210233B630223BB630023FB6325
:1015B00008233B64A8237B640223BB640423FB64ED
:1015C00007F12003184602F05FF90346002B01D013
:1015D00000F08BFA0F23FB6002233B6100237B6149
:1015E0004FF4A053BB614FF48053FB6107F10C0330
:1015F0000521184602F0C0FB0346002B01D000F085
:1016000074FA00BF5037BD4680BD00BF00380240AD
:101610000070004080B500AF174B184A1A60164B97
:1016200015225A60144B00229A60134B0022DA6094
:10163000114B4FF430221A610F4B4FF440125A6194
:101640000D4B00221A760C4B00225A760A4B0022D0
:101650009A76094B0022DA76074B00221A77064B5E
:1016600000225A77044800F00DFF0346002B01D0FA
:1016700000F03BFA00BF80BDE4140020006400408D
:1016800080B500AF174B184A1A60164B15225A60E6
:10169000144B00229A60134B0022DA60114B4FF476
:1016A00030221A610F4B4FF440125A610D4B002249
:1016B0001A760C4B00225A760A4B00229A76094B76
:1016C0000022DA76074B00221A77064B00225A775F
:1016D000044800F0D7FE0346002B01D000F005FAC5
:1016E00000BF80BD0C1500200068004080B500AF31
:1016F000114B124A1A60104B4FF4E1325A600E4BF4
:1017000000229A600C4B0022DA600B4B00221A6117
:10171000094B0C225A61084B00229A61064B0022A9
:10172000DA61054802F048FD0346002B01D000F0C5
:10173000DCF900BF80BD00BF341500200048004028
:1017400080B58AB000AF07F1140300221A605A6016
:101750009A60DA601A6100233B613D4B1B6B3C4A87
:1017600043F0040313633A4B1B6B03F004033B6128
:101770003B690023FB60364B1B6B354A43F080030B
:101780001363334B1B6B03F08003FB60FB68002388
:10179000BB602F4B1B6B2E4A43F0010313632C4B92
:1017A0001B6B03F00103BB60BB6800237B60284B0D
:1017B0001B6B274A43F002031363254B1B6B03F09B
:1017C00002037B607B6842F2F0037B610023BB6114
:1017D0000123FB6107F1140319461E4801F062FE64
:1017E00001237B614FF40413BB610123FB6107F10B
:1017F00014031946184801F055FE02237B610023AB
:10180000BB610123FB6107F114031946124801F083
:1018100049FE01237B610123BB610023FB6100239F
:101820003B6207F1140319460C4801F03BFE00220D
:1018300001210A4801F0EAFF00220121062001F0FF
:1018400068FD062001F081FD00BF2837BD4680BD40
:10185000003802400008024000000240000402403C
:1018600080B582B000AF7860164B00221A61154A2D
:101870007B681360134B00225A60124B00229A605F
:10188000104B0022DA600F4B01221A620D490E48FC
:1018900000F0F4FE0C4800F0D1FF02210A4801F0EC
:1018A000FEF90A4B08221A61084B00229A60074B86
:1018B0000022DA60054A7B68136000BF0837BD4626
:1018C00080BD00BFAC150020E41400207815002076
:1018D00080B582B000AF7860164B00221A61154ABD
:1018E0007B681360134B00225A60124B00229A60EF
:1018F000104B0022DA600F4B01221A620D490E488C
:1019000000F0BCFE0C4800F099FF02210A4801F0EB
:10191000C6F90A4B08221A61084B00229A60074B4D
:101920000022DA60054A7B68136000BF0837BD46B5
:1019300080BD00BF081600200C150020D415002023
:1019400080B582B000AF786009E04FF0FF3301222C
:101950007968074802F07DFC7B6801337B607B6817
:101960001B78002BF1D100BF00BF0837BD4680BDFA
:101970003415002080B588B000AF03463960FB8085
:101980000023FB833B4A07F11803126811461980B4
:101990000233120C1A7042F22003BB82364A07F15E
:1019A0000C0392E8030083E80300344B1A6807F144
:1019B0000C033349184603F0E7FC07F10C03184603
:1019C000FFF7BEFF2F48FFF7BBFFFA8807F11803A8
:1019D0002D49184603F0D8FC0023FB830AE0FA8B5C
:1019E000FB8B20323A4412F8081C284AD154FB8B56
:1019F0000133FB83FB8B022BF1D9244B3A22DA70A3
:101A0000224B20221A710023FB8325E0FB8B3A68CE
:101A100013441B781A4607F114031D49184603F0B6
:101A2000B3FCFA8B13465B0013440533397D174A28
:101A3000D154FA8B13465B0013440633797D134A65
:101A4000D154FA8B13465B00134407330F4A20210D
:101A5000D154FB8B0133FB83FB8B072BD6D90B4B6C
:101A60000A225A770948FFF76BFF00BF2037BD46AF
:101A700080BD00BF786700087C67000864260020EE
:101A800064670008686700086C6700080C000020A5
:101A90007067000880B483B000AF7860094B1B8882
:101AA0001A46094B1978094B9954064B1B88013388
:101AB0009AB2044B1A8000BF0C37BD465DF8047B18
:101AC000704700BF381600203C2600203C1600203E
:101AD00080B582B000AF0346FB80FB88184600F05B
:101AE000ADFC00BF0837BD4680BD80B400AF72B604
:101AF00000BFFEE780B483B000AF00237B60104BD3
:101B00005B6C0F4A43F4804353640D4B5B6C03F4EE
:101B100080437B607B6800233B60094B1B6C084A59
:101B200043F080531364064B1B6C03F080533B60FF
:101B30003B6800BF0C37BD465DF8047B704700BFB3
:101B40000038024080B58CB000AF786007F11C030C
:101B500000221A605A609A60DA601A617B681B681A
:101B60004A4A93423ED14A4B1B680133484A1360AC
:101B7000474B1B68012B0DD10023BB61454B1B6CF0
:101B8000444A43F000731364424B1B6C03F0007330
:101B9000BB61BB6900237B613E4B1B6B3D4A43F03D
:101BA000010313633B4B1B6B03F001037B617B69F8
:101BB0004FF4C053FB6102233B6200237B6203238B
:101BC000BB620923FB6207F11C031946324801F08E
:101BD00069FC00220221142001F09BFB142001F07B
:101BE000B4FB4FE07B681B682C4A93424AD1002328
:101BF0003B61284B1B6C274A43F080631364254BE1
:101C00001B6C03F080633B613B69214B1B68013314
:101C10001F4A13601E4B1B68012B0DD10023FB6074
:101C20001C4B1B6C1B4A43F000731364194B1B6C59
:101C300003F00073FB60FB680023BB60154B1B6B5C
:101C4000144A43F002031363124B1B6B03F00203AD
:101C5000BB60BB686023FB6102233B6200237B62A5
:101C60000323BB620923FB6207F11C0319460C48DE
:101C700001F018FC00220221402001F04AFB402024
:101C800001F063FB00BF3037BD4680BD00640040FB
:101C90006826002000380240000002400068004032
:101CA0000004024080B58AB000AF786007F11403E9
:101CB00000221A605A609A60DA601A617B681B68B9
:101CC0001D4A934234D100233B611C4B1B6C1B4AC1
:101CD00043F480231364194B1B6C03F480233B6192
:101CE0003B690023FB60154B1B6B144A43F0040354
:101CF0001363124B1B6B03F00403FB60FB684FF490
:101D000040637B610223BB610023FB6103233B62D1
:101D100007237B6207F114031946094801F0C2FB4F
:101D200000220121272001F0F4FA272001F00DFB09
:101D300000BF2837BD4680BD004800400038024043
:101D40000008024080B400AFFEE780B400AFFEE7B9
:101D500080B400AFFEE780B400AFFEE780B400AF10
:101D6000FEE780B400AF00BFBD465DF8047B70475E
:101D700080B400AF00BFBD465DF8047B704780B4FF
:101D800000AF00BFBD465DF8047B704780B500AF73
:101D900000F034FB0D4B1B6801330C4A13600C4BF5
:101DA0001B88002B0BD0012201210A4801F02EFDD7
:101DB000074B1B88013B9AB2054B1A8004E00022B6
:101DC0000121044801F022FD00BF80BD64260020EF
:101DD000C80000200004024080B500AF012001F0DF
:101DE0002FFD00BF80BD000080B500AF184800F097
:101DF0007CFF184B184A0021154800F03EFE0346B0
:101E0000002B23D1134B1B78072B09D8124B1B68CF
:101E10009BB210491846FFF7ADFD00F09DF815E0A4
:101E20000C4B1B7803F0F003102B0FD0094B1B78E1
:101E300003F0F003302B09D1084B01221A70064B36
:101E40001B689BB203491846FFF794FD00BF80BD95
:101E5000E41400204826002090150020622600206F
:101E600080B500AF044802F0B7FA012203490248E6
:101E700002F081FA00BF80BD341500203C2600200E
:101E800080B582B000AF2B4800F02FFF2A4B2B4AC1
:101E90000021284800F0F1FD284B1B682649184610
:101EA000FEF768FBFEF734FD254B03F580531B7AE4
:101EB000002B3BD008220021224803F01FFA204BC0
:101EC0005B7803F0F003002B04D11D4B5B780133EA
:101ED000FB7101E00823FB711B4B00221A7010E01C
:101EE000194B1B781946184B1B781A46144B0B4498
:101EF0005978144B9954144B1B780133DAB2124BB6
:101F00001A70114B1B78FA799A42E9D80D4B1B785D
:101F100003F0F003202B03D10C4B01221A7005E0D3
:101F20000B4B084A0B49034800F0CCFC00BF0837B4
:101F3000BD4680BD0C15002058260020EC15002061
:101F4000D004002050260020802600206226002099
:101F500034160020D415002080B500AF774B5B7895
:101F6000672B40F0E880754B9B78012B40F0E380B5
:101F7000724BDA78724B1A70704B1A79704B5A7038
:101F80006E4B5A796E4B9A706C4B9A796C4BDA7037
:101F90006B4B1A786A4B5B785340DAB2694B1A7014
:101FA000674B5A78664B9B781344DAB2654B5A708C
:101FB000634B9A78624BDB785340DAB2614B9A708C
:101FC0005F4BDA785E4B1B781344DAB25D4BDA7004
:101FD0005B4B1A785A4B5B781343DAB2594B1A7140
:101FE000574B5A78564B9B781344DAB2554B5A717B
:101FF000534B9A78524BDB781343DAB2514B9A71B8
:102000004F4BDA784E4B1B781344DAB24D4BDA71F2
:102010004B4B1A784A4B5B781340DAB2494B1A7231
:10202000474B5A78464B9B781344DAB2454B5A7269
:10203000434B9A78424BDB781340DAB2414B9A72A9
:102040003F4BDA783E4B1B781344DAB23D4BDA72E1
:102050003B4B1A783A4B5B78D31ADAB2394B1A7386
:10206000374B5A78364B9B781344DAB2354B5A7358
:10207000334B9A78324BDB78D31ADAB2314B9A73FE
:102080002F4BDA782E4B1B781344DAB22D4BDA73D0
:1020900010212D4801F0A2FB0346002B02D1294B51
:1020A000FF22DA70294B67221A70284B02225A70DD
:1020B000244B1A78254B9A70224B5A78234BDA70AE
:1020C000204B9A78214B1A711E4BDA781F4B5A71AC
:1020D0001C4B1A791D4B9A711A4B5A791B4BDA71AA
:1020E000184B9A79194B1A72164BDA79174B5A72A8
:1020F000144B1A7A154B9A72124B5A7A134BDA72A6
:10210000104B9A7A114B1A730E4BDA7A0F4B5A73A3
:102110000C4B1A7B0D4B9A730A4B5A7B0B4BDA73A1
:10212000084B9A7B094B1A74064BDA7B074B5A749F
:10213000074B12221A8000BF80BD00BF4826002036
:102140006C26002070260020000802403C1600206B
:102150003816002080B400AF01231846BD465DF854
:10216000047B704780B582B000AF7860396003F0BF
:102170009BF8034616221A604FF0FF3318460837C3
:10218000BD4680BD80B582B000AF78604FF0FF31B2
:102190007868FFF7E7FFFEE780B586B000AFF8602C
:1021A000B9607A6000237B610AE0AFF300800146EA
:1021B000BB685A1CBA60CAB21A707B6901337B6172
:1021C0007A697B689A42F0DB7B6818461837BD460F
:1021D00080BD80B586B000AFF860B9607A6000233A
:1021E0007B6109E0BB685A1CBA601B781846AFF3E4
:1021F00000807B6901337B617A697B689A42F1DBFD
:102200007B6818461837BD4680BD80B483B000AFE8
:1022100078604FF0FF3318460C37BD465DF8047BFD
:10222000704780B483B000AF786039603B684FF48A
:1022300000525A60002318460C37BD465DF8047BF7
:10224000704780B483B000AF7860012318460C3724
:10225000BD465DF8047B704780B485B000AFF86080
:10226000B9607A60002318461437BD465DF8047BD8
:102270007047000080B586B000AF7860144A154BF7
:10228000D31A7B617B693B61134B1B68002B02D126
:10229000114B124A1A60104B1A687B6813443A6952
:1022A0009A4207D203F000F803460C221A604FF05E
:1022B000FF3309E0084B1B68FB60074B1A687B681B
:1022C0001344054A1360FB6818461837BD4680BDA5
:1022D000000002200004000084260020A026002028
:1022E00080B400AF064BD3F88830054A43F470033E
:1022F000C2F8883000BFBD465DF8047B704700BF60
:1023000000ED00E0DFF834D00D480E490E4A0023FE
:1023100002E0D458C4500433C4188C42F9D30B4A99
:102320000B4C002301E013600432A242FBD3FFF701
:10233000D7FF02F0BFFFFEF7A7FF704700000220A3
:10234000000000209C0000204C6900089C00002038
:102350009C260020FEE7000080B500AF0E4B1B68F6
:102360000D4A43F4007313600B4B1B680A4A43F495
:1023700080631360084B1B68074A43F48073136043
:10238000032000F0BBFF002000F008F8FFF7B2FBCD
:102390000023184680BD00BF003C024080B582B0DB
:1023A00000AF7860124B1A68124B1B7819464FF435
:1023B0007A73B3FBF1F3B2FBF3F3184600F0D3FFEB
:1023C0000346002B01D001230EE07B680F2B0AD8B7
:1023D000002279684FF0FF3000F09BFF064A7B68CF
:1023E0001360002300E0012318460837BD4680BD76
:1023F0002C000020340000203000002080B400AF0A
:10240000064B1B781A46064B1B681344044A13609C
:1024100000BFBD465DF8047B704700BF340000205C
:102420008826002080B400AF034B1B681846BD46C9
:102430005DF8047B704700BF8826002080B584B01B
:1024400000AF7860FFF7EEFFB8607B68FB60FB6869
:10245000B3F1FF3F05D00A4B1B781A46FB681344C3
:10246000FB6000BFFFF7DEFF0246BB68D31AFA68C5
:102470009A42F7D800BF00BF1037BD4680BD00BFED
:102480003400002080B584B000AF78607B68002BFA
:1024900001D10123EDE07B6893F82030DBB2002B03
:1024A00002D17868FFF74EFB7B681B681A687B686F
:1024B0001B6842F001021A60FFF7B4FFF86012E0F7
:1024C000FFF7B0FF0246FB68D31A0A2B0BD97B68D3
:1024D0005B6A43F400327B685A627B68052283F8AA
:1024E00020200123C5E07B681B685B6803F00103C3
:1024F000002BE5D07B681B681A687B681B6822F09C
:1025000002021A60FFF78EFFF86012E0FFF78AFF01
:102510000246FB68D31A0A2B0BD97B685B6A43F42B
:1025200000327B685A627B68052283F820200123F1
:102530009FE07B681B685B6803F00203002BE5D11A
:102540007B681B7E012B08D17B681B681A687B683F
:102550001B6842F080021A6007E07B681B681A68FB
:102560007B681B6822F080021A607B685B7E012B0F
:1025700008D17B681B681A687B681B6842F04002C0
:102580001A6007E07B681B681A687B681B6822F08A
:1025900040021A607B689B7E012B08D17B681B6818
:1025A0001A687B681B6842F020021A6007E07B68AB
:1025B0001B681A687B681B6822F020021A607B681F
:1025C000DB7E012B08D17B681B681A687B681B685F
:1025D00022F010021A6007E07B681B681A687B68AB
:1025E0001B6842F010021A607B681B7F012B08D128
:1025F0007B681B681A687B681B6842F008021A60D7
:1026000007E07B681B681A687B681B6822F0080279
:102610001A607B685B7F012B08D17B681B681A6896
:102620007B681B6842F004021A6007E07B681B6845
:102630001A687B681B6822F004021A607B689A683B
:102640007B68DB681A437B681B691A437B685B699C
:1026500042EA03017B685B685A1E7B681B680A4379
:10266000DA617B6800225A627B68012283F82020AD
:10267000002318461037BD4680BD000080B487B0E7
:1026800000AF786039607B681B687B617B6893F87A
:102690002030FB74FB7C012B03D0FB7C022B40F031
:1026A000BE80654B7B617B69D3F8003243F0010249
:1026B0007B69C3F800227B69D3F8003223F47C5293
:1026C0007B69C3F800227B69D3F800223B685B6A10
:1026D0001B021A437B69C3F800223B685B6903F065
:1026E0001F03012202FA03F3FB607B69D3F81C226B
:1026F000FB68DB431A407B69C3F81C223B68DB693B
:10270000002B23D17B69D3F80C22FB68DB431A40F2
:102710007B69C3F80C223B68DB6819043B685B6883
:102720009BB23A68526919437B69483243F83210C8
:102730003B689B6819043B681B689AB23B685B69FD
:102740000A4379694833DB000B445A603B68DB6914
:10275000012B22D17B69D3F80C22FB681A437B69D9
:10276000C3F80C223B681B6819043B685B689BB28A
:102770003A68526919437B69483243F832103B6822
:102780009B6819043B68DB689AB23B685B690A4343
:1027900079694833DB000B445A603B689B69002B26
:1027A00009D17B69D3F80422FB68DB431A407B69BB
:1027B000C3F8042207E07B69D3F80422FB681A43BC
:1027C0007B69C3F804223B681B69002B09D17B6934
:1027D000D3F81422FB68DB431A407B69C3F8142248
:1027E00007E07B69D3F81422FB681A437B69C3F8BE
:1027F00014223B681B6A012B07D17B69D3F81C228A
:10280000FB681A437B69C3F81C227B69D3F800324A
:1028100023F001027B69C3F80022002306E07B68F5
:102820005B6A43F480227B685A62012318461C3796
:10283000BD465DF8047B70470064004080B584B0FD
:1028400000AF78607B6893F82030DBB2012B2ED18B
:102850007B68022283F820207B681B681A687B68EB
:102860001B6822F001021A60FFF7DCFDF86012E03D
:10287000FFF7D8FD0246FB68D31A0A2B0BD97B68F9
:102880005B6A43F400327B685A627B68052283F8F6
:102890002020012312E07B681B685B6803F00103C2
:1028A000002BE5D17B6800225A62002306E07B689A
:1028B0005B6A43F400227B685A6201231846103792
:1028C000BD4680BD80B489B000AFF860B9607A6061
:1028D0003B60FB6893F82030FB77FB681B689B68C4
:1028E000BB61FB7F012B03D0FB7F022B40F0B88044
:1028F000BB6903F08063002B0AD1BB6903F000635E
:10290000002B05D1BB6903F08053002B00F0A080A1
:10291000BB691B0E03F003037B617B69022B07D9A4
:10292000FB685B6A43F40002FB685A6201239EE085
:1029300001227B699A403B681A60BB689B68002B48
:102940000DD1BB681B685A05BB68DB68F96809686C
:102950001A437B6918331B010B441A600FE0BB68F4
:102960005B68DA00BB689B681A43BB68DB68F96880
:1029700009681A437B6918331B010B441A60FB6812
:102980001968BB681A697B6918331B010B4404334F
:102990001A60BB681B7D012B11D1FB681A687B692B
:1029A00018331B01134404331B68FA68116843F49D
:1029B00080727B6918331B010B4404331A607B68F7
:1029C00007331B781A067B6806331B781B041A43EF
:1029D0007B6805331B781B0213437A680432127834
:1029E0001046FA68116843EA00027B691B010B4438
:1029F00003F5C6731A607B6803331B781A067B687D
:102A000002331B781B041A437B6801331B781B02BB
:102A100013437A6812781046FA68116843EA000294
:102A20007B691B010B4403F5C4731A60FB681A68C9
:102A30007B6918331B0113441B68FA68116843F063
:102A400001027B6918331B010B441A6000230EE05E
:102A5000FB685B6A43F40012FB685A62012306E0DC
:102A6000FB685B6A43F48022FB685A6201231846C4
:102A70002437BD465DF8047B704780B487B000AF53
:102A8000F860B9607A603B60FB6893F82030FB75B2
:102A9000FB7D012B03D0FB7D022B40F0F380BB6854
:102AA000002B0ED1FB681B68DB6803F00303002BCF
:102AB00016D1FB685B6A43F40012FB685A6201237B
:102AC000E7E0FB681B681B6903F00303002B07D1D9
:102AD000FB685B6A43F40012FB685A620123D8E08A
:102AE000FB681A68BB681B331B0113441B6803F0A7
:102AF00004027B689A607B689B68002B0CD1FB68A2
:102B00001A68BB681B331B0113441B685B0DC3F3BE
:102B10000A027B681A600BE0FB681A68BB681B330B
:102B20001B0113441B68DB0823F060427B685A607A
:102B3000FB681A68BB681B331B0113441B6803F056
:102B400002027B68DA60FB681A68BB681B331B01F2
:102B5000134404331B6803F00F027B681A61FB689F
:102B60001A68BB681B331B01134404331B681B0A20
:102B7000DAB27B689A61FB681A68BB681B331B0179
:102B8000134404331B681B0C9AB27B685A61FB68C0
:102B90001A68BB681B01134403F5DC731B68DAB2C7
:102BA0003B681A70FB681A68BB681B01134403F585
:102BB000DC731B681A0A3B680133D2B21A70FB68D7
:102BC0001A68BB681B01134403F5DC731B681A0CFD
:102BD0003B680233D2B21A70FB681A68BB681B01EB
:102BE000134403F5DC731B681A0E3B680333D2B23F
:102BF0001A70FB681A68BB681B01134403F5DE7387
:102C00001A683B680433D2B21A70FB681A68BB6852
:102C10001B01134403F5DE731B681A0A3B68053376
:102C2000D2B21A70FB681A68BB681B01134403F523
:102C3000DE731B681A0C3B680633D2B21A70FB684D
:102C40001A68BB681B01134403F5DE731B681A0E78
:102C50003B680733D2B21A70BB68002B08D1FB68FF
:102C60001B68DA68FB681B6842F02002DA6007E044
:102C7000FB681B681A69FB681B6842F020021A6136
:102C8000002306E0FB685B6A43F48022FB685A621B
:102C9000012318461C37BD465DF8047B704780B49D
:102CA00085B000AF786039607B6893F82030FB73A3
:102CB000FB7B012B02D0FB7B022B09D17B681B68BD
:102CC00059697B681B683A680A435A61002306E029
:102CD0007B685B6A43F480227B685A620123184652
:102CE0001437BD465DF8047B704780B58AB000AFED
:102CF000786000237B627B681B685B693B627B6852
:102D00001B685B68FB617B681B689B68BB617B68B9
:102D10001B68DB687B617B681B681B693B617B68A8
:102D20001B689B69FB603B6A03F00103002B7CD0AE
:102D3000BB6903F00103002B23D07B681B680122D1
:102D40009A60BB6903F00203002B03D0786800F09F
:102D500083F916E0BB6903F00403002B04D07B6AFF
:102D600043F400637B620CE0BB6903F00803002BB3
:102D700004D07B6A43F480537B6202E0786800F001
:102D800089F9BB6903F48073002B24D07B681B682E
:102D90004FF480729A60BB6903F40073002B03D078
:102DA000786800F063F916E0BB6903F48063002BD8
:102DB00004D07B6A43F400537B620CE0BB6903F4EC
:102DC0000063002B04D07B6A43F480437B6202E003
:102DD000786800F069F9BB6903F48033002B24D0D4
:102DE0007B681B684FF480329A60BB6903F4003340
:102DF000002B03D0786800F043F916E0BB6903F4B8
:102E00008023002B04D07B6A43F400437B620CE0F8
:102E1000BB6903F40023002B04D07B6A43F48033A6
:102E20007B6202E0786800F049F93B6A03F008032E
:102E3000002B0CD07B6903F01003002B07D07B6ABA
:102E400043F400737B627B681B681022DA603B6A84
:102E500003F00403002B0BD07B6903F00803002B65
:102E600006D07B681B680822DA60786800F03AF9BF
:102E70003B6A03F00203002B09D07B681B68DB6808
:102E800003F00303002B02D0786800F021F93B6ABD
:102E900003F04003002B0CD03B6903F01003002B20
:102EA00007D07B6A43F480637B627B681B681022D7
:102EB0001A613B6A03F02003002B0BD03B6903F03F
:102EC0000803002B06D07B681B6808221A6178680B
:102ED00000F01CF93B6A03F01003002B09D07B685B
:102EE0001B681B6903F00303002B02D0786800F015
:102EF00003F93B6A03F40033002B0BD0FB6903F0AA
:102F00001003002B06D07B681B6810225A6078687B
:102F100000F006F93B6A03F48033002B0BD0FB6909
:102F200003F00803002B06D07B681B6808225A6058
:102F3000786800F0FFF83B6A03F40043002B7BD075
:102F4000FB6903F00403002B72D03B6A03F4807327
:102F5000002B08D0FB6803F00103002B03D07B6A31
:102F600043F001037B623B6A03F40073002B08D03B
:102F7000FB6803F00203002B03D07B6A43F00203DB
:102F80007B623B6A03F48063002B08D0FB6803F08C
:102F90000403002B03D07B6A43F004037B623B6A8B
:102FA00003F40063002B43D0FB6803F07003002B95
:102FB0003ED0FB6803F07003602B2BD0602B2ED823
:102FC000502B22D0502B2AD8402B19D0402B26D85A
:102FD000302B10D0302B22D8102B02D0202B05D034
:102FE0001DE07B6A43F008037B6219E07B6A43F0D3
:102FF00010037B6214E07B6A43F020037B620FE0E6
:103000007B6A43F040037B620AE07B6A43F0800303
:103010007B6205E07B6A43F480737B6200E000BF63
:103020007B681B689A697B681B6822F070029A6152
:103030007B681B6804225A607B6A002B08D07B687F
:103040005A6A7B6A1A437B685A62786800F07CF897
:1030500000BF2837BD4680BD80B483B000AF786024
:1030600000BF0C37BD465DF8047B704780B483B069
:1030700000AF786000BF0C37BD465DF8047B704739
:1030800080B483B000AF786000BF0C37BD465DF8F8
:10309000047B704780B483B000AF786000BF0C370A
:1030A000BD465DF8047B704780B483B000AF7860A4
:1030B00000BF0C37BD465DF8047B704780B483B019
:1030C00000AF786000BF0C37BD465DF8047B7047E9
:1030D00080B483B000AF786000BF0C37BD465DF8A8
:1030E000047B704780B483B000AF786000BF0C37BA
:1030F000BD465DF8047B704780B483B000AF786054
:1031000000BF0C37BD465DF8047B704780B483B0C8
:1031100000AF786000BF0C37BD465DF8047B704798
:1031200080B483B000AF786000BF0C37BD465DF857
:10313000047B704780B483B000AF786000BF0C3769
:10314000BD465DF8047B704780B483B000AF786003
:1031500000BF0C37BD465DF8047B704780B485B076
:1031600000AF78607B6803F00703FB600C4BDB6803
:10317000BB60BA684FF6FF031340BB60FB681A02DE
:10318000BB68134343F0BF6343F40033BB60044A9E
:10319000BB68D36000BF1437BD465DF8047B704741
:1031A00000ED00E080B400AF044BDB681B0A03F0C5
:1031B00007031846BD465DF8047B704700ED00E04C
:1031C00080B483B000AF0346FB7197F90730002B42
:1031D0000BDBFB7903F01F02074997F907305B0906
:1031E000012000FA02F241F8232000BF0C37BD464F
:1031F0005DF8047B704700BF00E100E080B483B05D
:1032000000AF03463960FB7197F90730002B0ADBEA
:103210003B68DAB20C4997F907301201D2B20B447D
:1032200083F800230AE03B68DAB20849FB7903F02F
:103230000F03043B1201D2B20B441A7600BF0C37C5
:10324000BD465DF8047B704700E100E000ED00E062
:1032500080B489B000AFF860B9607A60FB6803F0B1
:103260000703FB61FB69C3F10703042B28BF042399
:10327000BB61FB690433062B02D9FB69033B00E009
:1032800000237B614FF0FF32BB6902FA03F3DA439C
:10329000BB681A407B699A404FF0FF317B6901FAA5
:1032A00003F3D9437B680B40134318462437BD46CC
:1032B0005DF8047B7047000080B582B000AF786095
:1032C0007B68013BB3F1807F01D301230FE00A4A01
:1032D0007B68013B53600F214FF0FF30FFF78EFFFB
:1032E000054B00229A60044B07221A6000231846FF
:1032F0000837BD4680BD00BF10E000E080B582B059
:1033000000AF78607868FFF729FF00BF0837BD4637
:1033100080BD80B586B000AF0346B9607A60FB73AC
:1033200000237B61FFF73EFF78617A68B9687869AE
:10333000FFF78EFF024697F90F3011461846FFF748
:103340005DFF00BF1837BD4680BD80B582B000AFBD
:103350000346FB7197F907301846FFF731FF00BFAE
:103360000837BD4680BD80B582B000AF7860786810
:10337000FFF7A2FF034618460837BD4680BD80B55B
:1033800084B000AF78607B689B6DFB60FFF74AF804
:10339000B8607B6893F83530DBB2022B08D07B68CD
:1033A00080225A657B68002283F83420012352E092
:1033B0007B681B681A687B681B6822F016021A601B
:1033C0007B681B685A697B681B6822F080025A611F
:1033D0007B681B6C002B03D17B689B6C002B07D098
:1033E0007B681B681A687B681B6822F008021A60F9
:1033F0007B681B681A687B681B6822F001021A60F0
:1034000013E0FFF70FF80246BB68D31A052B0CD95F
:103410007B6820225A657B68032283F835207B680D
:10342000002283F83420032315E07B681B681B68A7
:1034300003F00103002BE4D17B68DB6D3F229A404F
:10344000FB689A607B68012283F835207B68002244
:1034500083F83420002318461037BD4680BD80B461
:1034600083B000AF78607B6893F83530DBB2022B15
:1034700004D07B6880225A6501230CE07B6805221A
:1034800083F835207B681B681A687B681B6822F00C
:1034900001021A60002318460C37BD465DF8047B14
:1034A0007047000080B489B000AF786039600023B5
:1034B0007B6100233B610023BB610023FB616BE167
:1034C0000122FB6902FA03F37B613B681B687A699E
:1034D00013403B613A697B699A4240F05A813B68EC
:1034E0005B6803F00303012B05D03B685B6803F0C6
:1034F0000303022B30D17B689B68BB61FB695B00D7
:10350000032202FA03F3DB43BA691340BB613B6851
:10351000DA68FB695B0002FA03F3BA691343BB6123
:103520007B68BA699A607B685B68BB610122FB6952
:1035300002FA03F3DB43BA691340BB613B685B6883
:103540001B0903F00102FB6902FA03F3BA69134392
:10355000BB617B68BA695A603B685B6803F0030330
:10356000032B17D07B68DB68BB61FB695B00032220
:1035700002FA03F3DB43BA691340BB613B689A6804
:10358000FB695B0002FA03F3BA691343BB617B6812
:10359000BA69DA603B685B6803F00303022B23D14E
:1035A000FB69DA087B68083253F82230BB61FB699B
:1035B00003F007039B000F2202FA03F3DB43BA690F
:1035C0001340BB613B681A69FB6903F007039B006A
:1035D00002FA03F3BA691343BB61FB69DA087B683B
:1035E0000832B96943F822107B681B68BB61FB692C
:1035F0005B00032202FA03F3DB43BA691340BB61A9
:103600003B685B6803F00302FB695B0002FA03F3AB
:10361000BA691343BB617B68BA691A603B685B682F
:1036200003F44033002B00F0B4800023FB60604BB8
:103630005B6C5F4A43F4804353645D4B5B6C03F403
:103640008043FB60FB685B4AFB699B08023352F8CE
:103650002330BB61FB6903F003039B000F2202FAD6
:1036600003F3DB43BA691340BB617B68524A934260
:103670002BD07B68514A934225D07B68504A9342B5
:103680001FD07B684F4A934219D07B684E4A9342C1
:1036900013D07B684D4A93420DD07B684C4A9342CD
:1036A00007D07B684B4A934201D107230EE00823E1
:1036B0000CE006230AE0052308E0042306E00323C8
:1036C00004E0022302E0012300E00023FA6902F093
:1036D000030292009340BA691343BB613549FB6909
:1036E0009B080233BA6941F823203B4B9B68BB61BE
:1036F0003B69DB43BA691340BB613B685B6803F419
:103700008013002B03D0BA693B691343BB61324A73
:10371000BB699360304BDB68BB613B69DB43BA69D3
:103720001340BB613B685B6803F40013002B03D0BC
:10373000BA693B691343BB61274ABB69D360264B17
:103740005B68BB613B69DB43BA691340BB613B68A3
:103750005B6803F40033002B03D0BA693B69134361
:10376000BB611D4ABB6953601B4B1B68BB613B6956
:10377000DB43BA691340BB613B685B6803F4803389
:10378000002B03D0BA693B691343BB61124ABB6982
:103790001360FB690133FB61FB690F2B7FF690AE71
:1037A00000BF00BF2437BD465DF8047B704700BFF3
:1037B000003802400038014000000240000402408E
:1037C00000080240000C02400010024000140240B9
:1037D00000180240001C0240003C014080B485B04B
:1037E00000AF78600B467B807B681A697B8813404A
:1037F000002B02D00123FB7301E00023FB73FB7B52
:1038000018461437BD465DF8047B704780B483B01A
:1038100000AF78600B467B8013467B707B78002B73
:1038200003D07A887B689A6103E07B881A047B68FE
:103830009A6100BF0C37BD465DF8047B70470000FD
:1038400080B582B000AF0346FB80084B5A69FB8805
:103850001340002B06D0054AFB885361FB881846AD
:1038600000F006F800BF0837BD4680BD003C0140AF
:1038700080B483B000AF0346FB8000BF0C37BD4669
:103880005DF8047B7047000080B586B000AF7860BB
:103890007B68002B01D1012367E27B681B6803F082
:1038A0000103002B75D0884B9B6803F00C03042B9D
:1038B0000CD0854B9B6803F00C03082B12D1824B74
:1038C0005B6803F48003B3F5800F0BD17E4B1B685C
:1038D00003F40033002B5BD07B685B68002B57D16F
:1038E000012342E27B685B68B3F5803F06D1764BEB
:1038F0001B68754A43F4803313601DE07B685B6886
:10390000B3F5A02F0CD1704B1B686F4A43F4802392
:1039100013606D4B1B686C4A43F4803313600BE0FB
:10392000694B1B68684A23F480331360664B1B683D
:10393000654A23F4802313607B685B68002B13D0F7
:10394000FEF770FD386108E0FEF76CFD02463B694A
:10395000D31A642B01D9032307E25B4B1B6803F4E2
:103960000033002BF0D014E0FEF75CFD386108E076
:10397000FEF758FD02463B69D31A642B01D9032395
:10398000F3E1514B1B6803F40033002BF0D100E04E
:1039900000BF7B681B6803F00203002B63D04A4B17
:1039A0009B6803F00C03002B0BD0474B9B6803F084
:1039B0000C03082B1CD1444B5B6803F48003002BE1
:1039C00016D1414B1B6803F00203002B05D07B6826
:1039D000DB68012B01D00123C7E13B4B1B6823F0BF
:1039E000F8027B681B69DB00374913430B603AE040
:1039F0007B68DB68002B20D0344B01221A60FEF775
:103A000011FD386108E0FEF70DFD02463B69D31A4F
:103A1000022B01D90323A8E12B4B1B6803F00203FF
:103A2000002BF0D0284B1B6823F0F8027B681B6941
:103A3000DB00254913430B6015E0244B00221A607C
:103A4000FEF7F0FC386108E0FEF7ECFC02463B694B
:103A5000D31A022B01D9032387E11B4B1B6803F008
:103A60000203002BF0D17B681B6803F00803002BD6
:103A700036D07B685B69002B16D0154B01221A608B
:103A8000FEF7D0FC386108E0FEF7CCFC02463B694B
:103A9000D31A022B01D9032367E10B4B5B6F03F0B1
:103AA0000203002BF0D01BE0094B00221A60FEF746
:103AB000B9FC38610EE0FEF7B5FC02463B69D31A4B
:103AC000022B07D9032350E100380240000047428F
:103AD000800E4742884B5B6F03F00203002BEAD154
:103AE0007B681B6803F00403002B00F09780002321
:103AF000FB75814B1B6C03F08053002B0FD100230F
:103B0000BB607D4B1B6C7C4A43F0805313647A4B43
:103B10001B6C03F08053BB60BB680123FB75774BC4
:103B20001B6803F48073002B18D1744B1B68734A15
:103B300043F480731360FEF775FC386108E0FEF70C
:103B400071FC02463B69D31A022B01D903230CE115
:103B50006A4B1B6803F48073002BF0D07B689B6872
:103B6000012B06D1644B1B6F634A43F001031367BB
:103B70001CE07B689B68052B0CD15F4B1B6F5E4A7A
:103B800043F0040313675C4B1B6F5B4A43F0010374
:103B900013670BE0584B1B6F574A23F00103136761
:103BA000554B1B6F544A23F0040313677B689B68D3
:103BB000002B15D0FEF736FC38610AE0FEF732FC28
:103BC00002463B69D31A41F28832934201D903235A
:103BD000CBE0494B1B6F03F00203002BEED014E047
:103BE000FEF720FC38610AE0FEF71CFC02463B6948
:103BF000D31A41F28832934201D90323B5E03E4BF8
:103C00001B6F03F00203002BEED1FB7D012B05D1CE
:103C1000394B1B6C384A23F0805313647B689B69D3
:103C2000002B00F0A180344B9B6803F00C03082BA1
:103C30005CD07B689B69022B41D1314B00221A601A
:103C4000FEF7F0FB386108E0FEF7ECFB02463B694B
:103C5000D31A022B01D9032387E0274B1B6803F0FB
:103C60000073002BF0D17B68DA697B681B6A1A430A
:103C70007B685B6A9B011A437B689B6A5B08013B1C
:103C80001B041A437B68DB6A1B061B4913434B600A
:103C90001B4B01221A60FEF7C5FB386108E0FEF7F6
:103CA000C1FB02463B69D31A022B01D903235CE016
:103CB000114B1B6803F00073002BF0D054E0104B45
:103CC00000221A60FEF7AEFB386108E0FEF7AAFB9F
:103CD00002463B69D31A022B01D9032345E0064B68
:103CE0001B6803F00073002BF0D13DE07B689B69FB
:103CF000012B07D1012338E000380240007000405A
:103D0000600047421B4B5B68FB607B689B69012B33
:103D100028D0FB6803F480027B68DB699A4221D1DA
:103D2000FB6803F03F027B681B6A9A421AD1FA686B
:103D300047F6C07313407A68526A9201934211D1D8
:103D4000FB6803F440327B689B6A5B08013B1B0401
:103D50009A4207D1FB6803F070627B68DB6A1B063E
:103D60009A4201D0012300E0002318461837BD46CF
:103D700080BD00BF0038024080B584B000AF7860DD
:103D800039607B68002B01D10123CCE0684B1B68B4
:103D900003F007033A689A420CD9654B3A68D2B2ED
:103DA0001A70634B1B6803F007033A689A4201D00C
:103DB0000123B8E07B681B6803F00203002B20D0CE
:103DC0007B681B6803F00403002B05D0594B9B68EC
:103DD000584A43F4E05393607B681B6803F0080380
:103DE000002B05D0534B9B68524A43F460439360C9
:103DF000504B9B6823F0F0027B689B684D4913434E
:103E00008B607B681B6803F00103002B44D07B6848
:103E10005B68012B07D1474B1B6803F40033002B71
:103E200019D101237FE07B685B68022B03D07B689C
:103E30005B68032B07D13F4B1B6803F00073002B1B
:103E400009D101236FE03B4B1B6803F00203002BF9
:103E500001D1012367E0374B9B6823F003027B68A5
:103E60005B68344913438B60FEF7DCFAF8600AE0C4
:103E7000FEF7D8FA0246FB68D31A41F28832934221
:103E800001D903234FE02B4B9B6803F00C027B68A6
:103E90005B689B009A42EBD1254B1B6803F007033C
:103EA0003A689A420CD2224B3A68D2B21A70204B2E
:103EB0001B6803F007033A689A4201D0012332E0FD
:103EC0007B681B6803F00403002B08D0194B9B6828
:103ED00023F4E0527B68DB68164913438B607B68F0
:103EE0001B6803F00803002B09D0124B9B6823F4D6
:103EF00060427B681B69DB000E4913438B6000F056
:103F000021F802460B4B9B681B0903F00F030A497B
:103F1000CB5C22FA03F3094A1360094B1B6818466D
:103F2000FEF73CFA002318461037BD4680BD00BF9F
:103F3000003C024000380240DC6700082C000020F2
:103F4000300000202DE9B04F94B000AF00237B6417
:103F50000023FB6400233B640023BB64794B9B6814
:103F600003F00C03082B0DD0082B00F2E180002B8E
:103F700002D0042B03D0DBE0734BBB64DBE0734B5C
:103F8000BB64D8E06F4B5B6803F03F037B646D4B11
:103F90005B6803F48003002B63D06A4B5B689B096A
:103FA0000022BB63FA63BB6BC3F308033B630023CC
:103FB0007B63D7E90C4522462B464FF000004FF0BB
:103FC0000001590141EAD261500102460B462146E7
:103FD000511A3961294663EB01037B614FF00002FE
:103FE0004FF00003D7E904AB59468B01514643EA31
:103FF000916351468A015146B2EB0108594663EB81
:1040000001094FF000024FF000034FEAC90343EAF1
:1040100058734FEAC80290469946234618EB0303AB
:10402000BB602B4649EB0303FB604FF000024FF0EF
:104030000003D7E9024529464B02214643EAD15302
:1040400021464A02104619467B6C0022BB62FA6286
:10405000D7E90A23FCF70CF902460B461346FB642A
:1040600058E0384B5B689B09002218461146C0F3A4
:1040700008033B6200237B62D7E9088942464B462E
:104080004FF000004FF00001590141EAD2615001A8
:1040900002460B464146B2EB010A494663EB010B6F
:1040A0004FF000024FF000034FEA8B1343EA9A638C
:1040B0004FEA8A12B2EB0A0463EB0B054FF00002E1
:1040C0004FF00003EB0043EA5473E20014461D4630
:1040D0004346E3183B604B4645EB03037B604FF0E0
:1040E00000024FF00003D7E9004529468B02214624
:1040F00043EA915321468A02104619467B6C0022FE
:10410000BB61FA61D7E90623FCF7B2F802460B4619
:104110001346FB640B4B5B681B0C03F0030301337A
:104120005B003B64FA6C3B6CB2FBF3F3BB6402E0F4
:10413000054BBB6400BFBB6C18465037BD46BDE89D
:10414000B08F00BF003802400024F40000127A0053
:1041500080B400AF034B1B681846BD465DF8047B76
:10416000704700BF2C00002080B500AFFFF7F0FFC4
:104170000246054B9B689B0A03F007030349CB5C8F
:1041800022FA03F3184680BD00380240EC670008AD
:1041900080B500AFFFF7DCFF0246054B9B685B0B69
:1041A00003F007030349CB5C22FA03F3184680BDF2
:1041B00000380240EC67000880B582B000AF78603C
:1041C0007B68002B01D101233FE07B6893F83D30F1
:1041D000DBB2002B06D17B68002283F83C20786894
:1041E000FDF760FD7B68242283F83D207B681B6817
:1041F000DA687B681B6822F40052DA60786800F0A5
:10420000DFFD7B681B681A697B681B6822F490429B
:104210001A617B681B685A697B681B6822F02A0256
:104220005A617B681B68DA687B681B6842F400523D
:10423000DA607B6800221A647B68202283F83D20C4
:104240007B68202283F83E20002318460837BD46AD
:1042500080BD80B58AB002AFF860B9603B6013469C
:10426000FB8000237B61FB6893F83D30DBB2202BA1
:104270007CD1BB68002B02D0FB88002B01D101232D
:1042800075E0FB6893F83C30012B01D102236EE00E
:10429000FB68012283F83C20FB6800221A64FB685B
:1042A000212283F83D20FEF7BDF87861FB68FA888B
:1042B0009A84FB68FA88DA84FB689B68B3F5805FB0
:1042C00008D1FB681B69002B04D10023FB61BB688C
:1042D000BB6103E0BB68FB610023BB61FB6800229C
:1042E00083F83C202AE03B6800937B690022802110
:1042F000F86800F01FFB0346002B01D0032336E0D3
:10430000FB69002B0BD1BB691B881A46FB681B6835
:10431000C2F308025A60BB690233BB6107E0FB6964
:104320001A78FB681B685A60FB690133FB61FB6804
:10433000DB8C9BB2013B9AB2FB68DA84FB68DB8CB6
:104340009BB2002BCFD13B6800937B6900224021B8
:10435000F86800F0EFFA0346002B01D0032306E0D3
:10436000FB68202283F83D20002300E0022318464A
:104370002037BD4680BD80B584B000AFF860B9601D
:104380001346FB80FB6893F83E30DBB2202B1DD137
:10439000BB68002B02D0FB88002B01D1012316E063
:1043A000FB6893F83C30012B01D102230FE0FB683E
:1043B000012283F83C20FB6800221A63FB881A461E
:1043C000B968F86800F024FB034600E002231846B1
:1043D0001037BD4680BD000080B5BAB000AF786030
:1043E0007B681B681B68C7F8E4307B681B68DB6868
:1043F000C7F8E0307B681B685B69C7F8DC300023D6
:10440000C7F8D8300023C7F8D430D7F8E43003F029
:104410000F03C7F8D830D7F8D830002B0FD1D7F812
:10442000E43003F02003002B09D0D7F8E03003F08C
:104430002003002B03D0786800F007FC56E2D7F881
:10444000D830002B00F0DE80D7F8DC3003F0010319
:10445000002B06D1D7F8E03003F49073002B00F066
:10446000D180D7F8E43003F00103002B0BD0D7F84C
:10447000E03003F48073002B05D07B681B6C43F0A5
:1044800001027B681A64D7F8E43003F00403002BC0
:104490000BD0D7F8DC3003F00103002B05D07B688C
:1044A0001B6C43F002027B681A64D7F8E43003F017
:1044B0000203002B0BD0D7F8DC3003F00103002BF4
:1044C00005D07B681B6C43F004027B681A64D7F844
:1044D000E43003F00803002B11D0D7F8E03003F0EC
:1044E0002003002B05D1D7F8DC3003F00103002BAB
:1044F00005D07B681B6C43F008027B681A647B68FC
:104500001B6C002B00F0ED81D7F8E43003F02003A2
:10451000002B08D0D7F8E03003F02003002B02D0A6
:10452000786800F092FB7B681B685B6903F04003CE
:10453000402B0CBF01230023DBB2C7F8D4307B68CB
:104540001B6C03F00803002B03D1D7F8D430002BE9
:104550004FD0786800F09AFA7B681B685B6903F0BB
:104560004003402B41D17B681B681433C7F89C3053
:10457000D7F89C3053E8003FC7F89830D7F8983008
:1045800023F04003C7F8D0307B681B681433D7F89A
:10459000D020C7F8A820C7F8A430D7F8A410D7F8BF
:1045A000A82041E80023C7F8A030D7F8A030002B9E
:1045B000D9D17B689B6B002B13D07B689B6B7D4AAA
:1045C0001A657B689B6B1846FEF749FF0346002B74
:1045D00016D07B689B6B1B6D7A68926B1046984770
:1045E0000EE0786800F090F90AE0786800F08CF945
:1045F00006E0786800F088F97B6800221A6470E1B0
:1046000000BF6EE17B681B6B012B40F04A81D7F83D
:10461000E43003F01003002B00F04381D7F8E030C2
:1046200003F01003002B00F03C810023BB607B688B
:104630001B681B68BB607B681B685B68BB60BB68F2
:104640007B681B685B6903F04003402B40F0B4803B
:104650007B689B6B1B685B68A7F8BE30B7F8BE3001
:10466000002B00F040817B689B8DB7F8BE209A42FA
:1046700080F039817B68B7F8BE20DA857B689B6B58
:10468000DB69B3F5807F00F088807B681B680C33A2
:10469000C7F88830D7F8883053E8003FC7F884302F
:1046A000D7F8843023F48073C7F8B8307B681B6870
:1046B0000C33D7F8B820C7F89420C7F89030D7F853
:1046C0009010D7F8942041E80023C7F88C30D7F831
:1046D0008C30002BD9D17B681B6814337B677B6FD0
:1046E00053E8003F3B673B6F23F00103C7F8B4304A
:1046F0007B681B681433D7F8B420C7F88020FB67A9
:10470000F96FD7F8802041E80023BB67BB6F002B0F
:10471000E1D17B681B6814333B663B6E53E8003F76
:10472000FB65FB6D23F04003C7F8B0307B681B6866
:104730001433D7F8B020FA66BB66B96EFA6E41E85A
:1047400000237B667B6E002BE3D17B68202283F8FD
:104750003E207B6800221A637B681B680C33FB6475
:10476000FB6C53E8003FBB64BB6C23F01003C7F83D
:10477000AC307B681B680C33D7F8AC20BA657B651E
:10478000796DBA6D41E800233B653B6D002BE3D1A9
:104790007B689B6B1846FEF7F2FD7B689A8D7B6801
:1047A000DB8D9BB2D31A9BB21946786800F0B6F83D
:1047B00099E000BF534B00087B689A8D7B68DB8DC6
:1047C0009BB2D31AA7F8CE307B68DB8D9BB2002B4F
:1047D00000F08B80B7F8CE30002B00F086807B682D
:1047E0001B680C33BB63BB6B53E8003F7B637B6B85
:1047F00023F49073C7F8C8307B681B680C33D7F874
:10480000C8207A643B64396C7A6C41E80023FB630E
:10481000FB6B002BE3D17B681B6814337B627B6AE4
:1048200053E8003F3B623B6A23F00103C7F8C43002
:104830007B681B681433D7F8C4203A63FB62F96ABB
:104840003A6B41E80023BB62BB6A002BE3D17B6873
:10485000202283F83E207B6800221A637B681B6855
:104860000C333B613B6953E8003FFB60FB6823F07E
:104870001003C7F8C0307B681B680C33D7F8C02022
:10488000FA61BB61B969FA6941E800237B617B6920
:10489000002BE3D1B7F8CE301946786800F03EF827
:1048A00023E0D7F8E43003F08003002B09D0D7F8D9
:1048B000E03003F08003002B03D0786800F05DF94E
:1048C00014E0D7F8E43003F04003002B0ED0D7F803
:1048D000E03003F04003002B08D0786800F09DF929
:1048E00004E000BF02E000BF00E000BFE837BD46C3
:1048F00080BD00BF80B483B000AF786000BF0C37CC
:10490000BD465DF8047B704780B483B000AF78602B
:1049100000BF0C37BD465DF8047B704780B483B0A0
:1049200000AF78600B467B8000BF0C37BD465DF85A
:10493000047B704780B590B000AFF860B9603B6011
:104940001346FB7150E0BB6CB3F1FF3F4CD0BB6C26
:10495000002B07D0FDF766FD02463B68D31ABA6C00
:104960009A4241D2FB681B680C33BB62BB6A53E8B6
:10497000003F7B627B6A23F4D073FB63FB681B6898
:104980000C33FA6B7A633B63396B7A6B41E8002333
:10499000FB62FB6A002BE5D1FB681B6814337B616B
:1049A0007B6953E8003F3B613B6923F00103BB6334
:1049B000FB681B681433BA6B3A62FB61F9693A6AA7
:1049C00041E80023BB61BB69002BE5D1FB682022D5
:1049D00083F83D20FB68202283F83E20FB680022FC
:1049E00083F83C2003230FE0FB681B681A68BB6850
:1049F0001340BA689A420CBF01230023DBB21A4667
:104A0000FB799A429FD0002318464037BD4680BDAF
:104A100080B485B000AFF860B9601346FB80FB68D6
:104A2000BA689A62FB68FA889A85FB68FA88DA8520
:104A3000FB6800221A64FB68222283F83E20FB6890
:104A4000002283F83C20FB681B69002B07D0FB6821
:104A50001B68DA68FB681B6842F48072DA60FB68E6
:104A60001B685A69FB681B6842F001025A61FB68C7
:104A70001B68DA68FB681B6842F02002DA600023DA
:104A800018461437BD465DF8047B704780B495B076
:104A900000AF78607B681B680C337B637B6B53E8EB
:104AA000003F3B633B6B23F49073FB647B681B68A4
:104AB0000C33FA6C3A64FB63F96B3A6C41E80023FF
:104AC000BB63BB6B002BE5D17B681B6814333B6277
:104AD0003B6A53E8003FFB61FB6923F00103BB64C1
:104AE0007B681B681433BA6CFA62BB62B96AFA6AF3
:104AF00041E800237B627B6A002BE5D17B681B6B5E
:104B0000012B19D17B681B680C33FB60FB6853E8F1
:104B1000003FBB60BB6823F010037B647B681B68AD
:104B20000C337A6CBA617B617969BA6941E8002318
:104B30003B613B69002BE5D17B68202283F83E2056
:104B40007B6800221A6300BF5437BD465DF8047BC2
:104B5000704780B584B000AF78607B689B6BFB606A
:104B6000FB680022DA85FB680022DA84F868FFF728
:104B7000CBFE00BF1037BD4680BD80B485B000AF0E
:104B800078607B6893F83D30DBB2212B3ED17B68A7
:104B90009B68B3F5805F14D17B681B69002B10D133
:104BA0007B681B6AFB60FB681B881A467B681B6876
:104BB000C2F308025A607B681B6A9A1C7B681A62FF
:104BC00008E07B681B6A591C7A6811621A787B6856
:104BD0001B685A607B68DB8C9BB2013B9BB27A6896
:104BE0001946D184002B0FD17B681B68DA687B687B
:104BF0001B6822F08002DA607B681B68DA687B68D9
:104C00001B6842F04002DA60002300E002231846ED
:104C10001437BD465DF8047B704780B582B000AFA5
:104C200078607B681B68DA687B681B6822F040024A
:104C3000DA607B68202283F83D207868FFF75AFE0F
:104C4000002318460837BD4680BD80B58CB000AF44
:104C500078607B6893F83E30DBB2222B40F0AB806B
:104C60007B689B68B3F5805F17D17B681B69002B5D
:104C700013D10023FB627B689B6ABB627B681B6865
:104C80005B689BB2C3F308039AB2BB6A1A807B6865
:104C90009B6A9A1C7B689A6226E07B689B6AFB622F
:104CA0000023BB627B689B68B3F5805F07D07B689D
:104CB0009B68002B0AD17B681B69002B06D17B689F
:104CC0001B685B68DAB2FB6A1A7008E07B681B68D5
:104CD0005B68DBB203F07F03DAB2FB6A1A707B68B1
:104CE0009B6A5A1C7B689A627B68DB8D9BB2013B96
:104CF0009BB27A681946D185002B5AD17B681B6814
:104D0000DA687B681B6822F02002DA607B681B6827
:104D1000DA687B681B6822F48072DA607B681B6843
:104D20005A697B681B6822F001025A617B68202265
:104D300083F83E207B681B6B012B35D17B680022FA
:104D40001A637B681B680C337B617B6953E8003F07
:104D50003B613B6923F010037B627B681B680C336B
:104D60007A6A3A62FB61F9693A6A41E80023BB61F9
:104D7000BB69002BE5D17B681B681B6803F010033F
:104D8000102B0AD10023FB607B681B681B68FB604B
:104D90007B681B685B68FB60FB687B689B8D1946C2
:104DA0007868FFF7BBFD02E07868FCF773FE00232C
:104DB00002E0002300E0022318463037BD4680BDE4
:104DC0002DE9B04FC0B000AFC7F8F400D7F8F43009
:104DD0001B681B6923F44050D7F8F430D968D7F822
:104DE000F4301A6840EA01031361D7F8F4309A6886
:104DF000D7F8F4301B691A43D7F8F4305B691A43CB
:104E0000D7F8F430DB691343C7F8F830D7F8F4303B
:104E10001B68DB6823F4164121F00C01D7F8F4304D
:104E20001A68D7F8F8300B43D360D7F8F4301B6812
:104E30005B6923F44070D7F8F4309969D7F8F430FF
:104E40001A6840EA01035361D7F8F4301A688F4BAF
:104E50009A4205D0D7F8F4301A688D4B9A4204D1A3
:104E6000FFF796F9C7F8FC0003E0FFF77DF9C7F8F4
:104E7000FC00D7F8F430DB69B3F5004F40F00C814B
:104E8000D7F8FC300022C7F8E830C7F8EC20D7E9A3
:104E90003A4522462B469118B9655B41FB65D7E937
:104EA0001623214612EB0108294643EB01094FF076
:104EB00000024FF000034FEAC90343EA58734FEA78
:104EC000C80290469946234618EB0303C7F8E03022
:104ED0002B4649EB0303C7F8E430D7F8F4305B689E
:104EE0000022C7F8D830C7F8DC20D7E936120B46C5
:104EF000DB183B65134642EB03037B65D7E91423BC
:104F0000D7E93801FBF7B4F902460B46614BA3FB26
:104F100002235B091C01D7F8FC300022C7F8D0300F
:104F2000C7F8D420D7E9348942464B469118B96472
:104F30005B41FB64D7E91223414612EB010A494663
:104F400043EB010B4FF000024FF000034FEACB039D
:104F500043EA5A734FEACA0292469B4643461AEB0B
:104F60000303C7F8C8304B464BEB0303C7F8CC30FC
:104F7000D7F8F4305B680022C7F8C030C7F8C42007
:104F8000D7E930120B46DB183B64134642EB0303B0
:104F90007B64D7E91023D7E93201FBF769F90246B0
:104FA0000B4611463B4BA3FB01235B09642202FB2A
:104FB00003F3CB1ADB0003F13202364BA3FB0223CF
:104FC0005B095B0003F4F8731C44D7F8FC30002243
:104FD000C7F8B830C7F8BC20D7E92E8942464B46FF
:104FE0009118B9635B41FB63D7E90E234146511821
:104FF000396349464B417B634FF000024FF0000399
:10500000D7E90CAB5946CB00514643EA51735146A0
:10501000CA0010461946034642469B18C7F8B030EE
:105020004B460A4642EB0303C7F8B430D7F8F430D6
:105030005B680022C7F8A830C7F8AC20D7E92A126D
:105040000B46DB18BB62134642EB0303FB62D7E956
:105050000A23D7E92C01FBF70BF902460B460D4B4F
:10506000A3FB02135B09642101FB03F3D31ADB00EA
:105070003233084AA2FB03235B0903F00702D7F887
:10508000F4301B6822449A6005E100BF0010014023
:10509000001401401F85EB51D7F8FC300022C7F8FF
:1050A000A030C7F8A420D7E9288942464B4691187A
:1050B00039625B417B62D7E908234146541849466F
:1050C00043EB01054FF000024FF00003EB0043EA11
:1050D0005473E20014461D464346E318C7F898305F
:1050E0004B4645EB0303C7F89C30D7F8F4305B68B8
:1050F0000022C7F89030C7F894204FF000024FF01C
:105100000003D7E9244529468B00214643EA9173E1
:1051100021468A00D7E92601FBF7AAF802460B468A
:10512000604BA3FB02235B091C01D7F8FC30002273
:10513000C7F88830C7F88C20D7E9228942464B4609
:105140009118B9615B41FB61D7E9062341465118CB
:10515000396149464B417B614FF000024FF000033B
:10516000D7E904AB5946CB00514643EA5173514647
:10517000CA0010461946034642469B18C7F88030BD
:105180004B460A4642EB0303C7F88430D7F8F430A5
:105190005B680022BB67FA674FF000024FF0000324
:1051A000D7E91E8949468B00414643EA917341463F
:1051B0008A00D7E92001FBF75BF802460B46394B22
:1051C000A3FB02135B09642101FB03F3D31A1B0148
:1051D0003233344AA2FB03235B0903F0F0031C447F
:1051E000D7F8FC3000223B677A67D7E91C89424632
:1051F0004B469118B9605B41FB60D7E902234146F9
:105200005118396049464B417B604FF000024FF026
:105210000003D7E900AB5946CB00514643EA51732E
:105220005146CA0010461946034642469B18BB66C3
:105230004B460A4642EB0303FB66D7F8F4305B6843
:1052400000223B667A664FF000024FF00003D7E978
:10525000188949468B00414643EA917341468A00CA
:10526000D7E91A01FBF704F802460B460D4BA3FBE6
:1052700002135B09642101FB03F3D31A1B013233D0
:10528000084AA2FB03235B0903F00F02D7F8F430AE
:105290001B6822449A6000BF07F58077BD46BDE8D1
:1052A000B08F00BF1F85EB51014B1868704700BFDE
:1052B0003800002070B50D4D0D4C641BA410002665
:1052C000A64209D10B4D0C4C01F034FA641BA4101A
:1052D0000026A64205D170BD55F8043B984701361B
:1052E000EEE755F8043B98470136F2E744690008B9
:1052F00044690008446900084869000802440346FC
:10530000934200D1704703F8011BF9E7164B10B523
:105310001C68A36BB3B9182000F086F8A06328B905
:105320000246124B12484E2100F04EF8114A124B21
:10533000C0E90023114B83600B23838101220023EA
:10534000C0E90423A46B0E4A206963690D494243F6
:1053500001FB0322A0FB0101431C42EB0100C4E955
:10536000043020F0004010BD38000020F86700082D
:105370000F6800080E33CDAB34126DE6ECDE05008D
:105380002DF451582D7F954C0EB400B59CB01DAB3B
:10539000029006906FF00041094807910491094975
:1053A00053F8042B05910068019302A900F080F9DD
:1053B000029B00221A701CB05DF804EB03B070472A
:1053C000380000200802FFFF1FB514461A46094B9B
:1053D0001B680546D8684CB1074B0091CDE90134F4
:1053E00006492B4600F00EF800F020FE044B1C4648
:1053F000F3E700BF380000206A68000877680008FB
:10540000A56800080EB403B5014603AB054853F880
:10541000042B0068019300F075FA02B05DF804EB0C
:1054200003B0704738000020024B0146186800F0B6
:105430006FB800BF3800002037B5002944D051F8BC
:10544000043C0190002BA1F10404B8BFE41801F062
:105450003DF81E4A0198136833B96360146003B0C5
:10546000BDE8304001F038B8A34208D92568611979
:105470008B4201BF19685B6849192160EDE71A4644
:105480005B680BB1A342FAD911685518A5420BD13C
:10549000246821445418A3421160E0D11C685B6861
:1054A000536021441160DAE702D90C230360D6E788
:1054B000256861198B4204BF19685B68636004BF8B
:1054C000491921605460CAE703B030BD8C26002022
:1054D00070B50E4E0C463168054611B900F0D6FC89
:1054E00030602146284600F0D1FC431C0AD0C41C81
:1054F00024F00304A04207D0211A284600F0C6FC7D
:10550000013001D14FF0FF34204670BD90260020BD
:105510002DE9F041CD1C25F0030508350C2D38BFD1
:105520000C25002D074601DBA94205D90C233B6061
:1055300000263046BDE8F0812E4E00F0C7FF3368EC
:105540001C4634BB29463846FFF7C2FF431C0446BD
:105550004DD134682646002E40D123683146384666
:1055600004EB030800F092FC80453AD12168033532
:105570006D1A25F0030508350C2D38BF0C2529467A
:105580003846FFF7A5FF01302BD023682B4423605A
:105590000EE02268521B1ED40B2A16D96119A342B1
:1055A000256018BF5960636808BF316062514B6065
:1055B000384604F10B0600F08FFF26F00706231D86
:1055C000F21AB6D09B1BA350B3E76268A3420CBF8C
:1055D00032605A60ECE723466468B2E73446766886
:1055E000B9E70C233B60384600F076FFA1E7256061
:1055F000DEE700BF8C2600202DE9F0478E689E4232
:1056000082460C4690461F4638D88A8912F4906F1D
:1056100032D025680969A5EB0109656905EB4505E7
:1056200005EBD57501334B446D109D4238BF1D46C7
:10563000530531D52946FFF76BFF064650B90C23B9
:10564000CAF80030A38943F04003A3814FF0FF3034
:10565000BDE8F08721694A4600F010FFA38923F4D2
:10566000906343F08003A381266165614E44A5EBFE
:1056700009052660A5603E46BE4200D93E46206828
:105680003246414600F008FFA3689B1BA3602368D5
:10569000334423600020DBE72A4600F023FF064660
:1056A0000028E1D121695046FFF7C6FEC7E7000098
:1056B0002DE9F04F98468B891B069DB007460D4695
:1056C00014460ED50B6963B94021FFF721FF28600E
:1056D000286120B90C233B604FF0FF30D1E040231C
:1056E0006B610023099320238DF82930CDF80C80BD
:1056F0003023DFF8A8818DF82A304FF001092346C6
:105700009A4613F8012B0AB1252AF9D1BAEB040BFA
:105710000BD05B46224629463846FFF76DFF013025
:1057200000F0AA80099A5A4409929AF80030002B96
:1057300000F0A28000234FF0FF32CDE905230AF1EB
:10574000010A049307938DF853301A9354460522A7
:1057500014F8011B5148FAF73BFD049AD8B9D0065A
:1057600044BF20238DF85330110744BF2B238DF8FD
:1057700053309AF800302A2B15D0079A544600204F
:105780004FF00A0C214611F8013B303B092B4ED952
:10579000B0B1079214E0A0EB080309FA03F3134336
:1057A0000493A246D2E7039B191D1B680391002BAB
:1057B000BBBF5B4242F0020207930793B8BF04925B
:1057C00023782E2B0CD163782A2B35D1039B1A1DFD
:1057D0001B680392002BB8BF4FF0FF3302340593D0
:1057E000DFF8C8A0217803225046FAF7F1FC40B157
:1057F0004023A0EB0A0003FA00F0049B03430134AA
:10580000049314F8011B26488DF828100622FAF795
:10581000DFFC002838D0234B1BBB039B073323F04E
:10582000070308330393099B3344099367E70CFB91
:1058300002320C460120A5E70023013405931946E6
:105840004FF00A0C204610F8012B303A092A03D9F0
:10585000002BC5D00591C3E70CFB012104460123B1
:10586000F0E703AB00932A460F4B04A93846AFF389
:105870000080421C0646D6D1AB895B063FF52CAFB3
:1058800009981DB0BDE8F08F03AB00932A46064B84
:1058900004A9384600F0D4F9EBE700BFA668000879
:1058A000B068000800000000F9550008AC68000866
:1058B0009368013B002B10B4936008DA9469A3420B
:1058C00001DB0A2903D15DF8044B00F0EFBA13683D
:1058D000581C1060197008465DF8044B7047F8B505
:1058E00006460F461446D518AC4201D1002007E009
:1058F00014F8011B3A463046FFF7DAFF431CF3D198
:10590000F8BD00002DE9F04F0D469DB014469846B5
:10591000064618B183690BB900F0AAFC894B9D4279
:105920001BD175686B6ED90705D4AB899A0502D473
:10593000A86D00F03BFDAB891B0701D52B69EBB9C6
:105940002946304600F004FBC0B16B6EDC070ED573
:105950004FF0FF301DB0BDE8F08F7B4B9D4201D171
:10596000B568DFE7794B9D4208BFF568DAE7AB8998
:105970009805EDD4A86D00F01AFDE9E7002309931E
:1059800020238DF82930CDF80C803023DFF8C0813A
:105990008DF82A304FF0010923469A4613F8012B5F
:1059A0000AB1252AF9D1BAEB040B0BD05B4622468B
:1059B00029463046FFF793FF013000F0AA80099A8C
:1059C0005A4409929AF80030002B00F0A28000237C
:1059D0004FF0FF32CDE905230AF1010A0493079342
:1059E0008DF853301A935446052214F8011B584879
:1059F000FAF7EEFB049AD8B9D10644BF20238DF8FC
:105A00005330130744BF2B238DF853309AF80030DE
:105A10002A2B15D0079A544600204FF00A0C214635
:105A200011F8013B303B092B4ED9B0B1079214E07D
:105A3000A0EB080309FA03F313430493A246D2E749
:105A4000039B191D1B680391002BBBBF5B4242F0F7
:105A5000020207930793B8BF049223782E2B0CD130
:105A600063782A2B35D1039B1A1D1B680392002BE8
:105A7000B8BF4FF0FF3302340593DFF8E4A021787C
:105A800003225046FAF7A4FB40B14023A0EB0A00E2
:105A900003FA00F0049B03430134049314F8011B40
:105AA0002C488DF828100622FAF792FB00283FD0E8
:105AB000294B1BBB039B073323F0070308330393D6
:105AC000099B3B44099367E70CFB02320C4601201B
:105AD000A5E700230134059319464FF00A0C204630
