:020000040800F2
:1000000000000220613A00080134000809340008A9
:1000100011340008193400082134000800000000E1
:10002000000000000000000000000000293400086B
:10003000373400080000000045340008553400083B
:10004000B13A0008B13A0008B13A0008B13A0008E4
:10005000B13A0008B13A000871340008B13A00081A
:10006000B13A0008B13A0008B13A0008B13A0008C4
:10007000B13A0008B13A0008B13A0008B13A0008B4
:10008000B13A0008B13A0008B13A0008B13A0008A4
:10009000C5340008B13A0008B13A0008B13A000886
:1000A000B13A0008B13A0008B13A0008B13A000884
:1000B000B13A0008B13A0008B13A0008B13A000874
:1000C000B13A0008B13A0008B13A0008B13A000864
:1000D000B13A0008B13A0008B13A000841390008C5
:1000E000B13A0008B13A0008B13A0008B13A000844
:1000F000B13A0008B13A0008B13A0008B13A000834
:10010000B13A0008B13A0008B13A0008B13A000823
:10011000B13A0008B13A0008B13A0008B13A000813
:1001200061390008B13A0008B13A0008B13A000854
:10013000B13A00080000000000000000B13A0008D9
:1001400075390008B13A0008B13A0008B13A000820
:10015000B13A0008B13A0008B13A0008B13A0008D3
:10016000B13A0008B13A0008B13A0008B13A0008C3
:10017000B13A0008B13A0008000000000000000099
:08018000B13A0008B13A000891
:1001900010B5054C237833B9044B13B10448AFF3C1
:1001A00000800123237010BD8000002000000000AB
:1001B000B082000808B5034B1BB103490348AFF3F5
:1001C000008008BD0000000084000020B08200080C
:1001D000034613F8012B002AFBD1181A0138704787
:1001E00001F0FF01102A2BDB10F0070F08D010F8E8
:1001F000013B013A8B422DD010F0070F42B3F6D1EC
:10020000F0B441EA012141EA014122F007047FF004
:1002100000070023F0E80256083C85EA010586EA5B
:10022000010685FA47F5A3FA87F586FA47F6A5FA97
:1002300087F68EB9EED1F0BC01F0FF0102F00702A3
:1002400032B110F8013B013A83EA010313B1F8D14E
:100250000020704701387047002D06BF354603382F
:10026000073815F0010F07D1013015F4807F02BF68
:10027000013015F4C03F0130F0BC0138704700BFB9
:1002800053B94AB9002908BF00281CBF4FF0FF31FD
:100290004FF0FF3000F088B9ADF1080C6DE904CEE5
:1002A00000F006F8DDF804E0DDE9022304B0704751
:1002B0002DE9F047089D0F4604468C46002B48D197
:1002C0008A42164661D9B2FA82F34BB1C3F12002D9
:1002D00001FA03FC20FA02F29E4042EA0C0C9C4018
:1002E0004FEA164EB7B2BCFBFEF1220C0EFB11CC4E
:1002F00042EA0C4201FB07F0904209D9B21801F121
:10030000FF3C80F0EE80904240F2EB8002393244B4
:10031000121AA4B2B2FBFEF00EFB102244EA024411
:1003200000FB07F7A74209D9341900F1FF3280F02A
:10033000DA80A74240F2D7803444023840EA0140D4
:10034000E41B00211DB1DC400023C5E90043BDE8EA
:10035000F0878B4206D90DB1C5E90001002108469E
:10036000BDE8F087B3FA83F1002948D1BB4202D33C
:10037000824200F20781841A67EB0302012094464F
:10038000002DE4D0C5E9004CE1E7002A00F092809E
:10039000B2FA82F3002B40F0A8808A1A4FEA164E78
:1003A0001FFA86FC0121200CB2FBFEF70EFB172280
:1003B00040EA02420CFB07F0904207D9B21807F15D
:1003C000FF3802D2904200F2E2804746121AA4B2ED
:1003D000B2FBFEF00EFB102244EA02440CFB00FCD0
:1003E000A44507D9341900F1FF3202D2A44500F226
:1003F000CB801046A4EB0C0440EA0740A2E7C1F111
:1004000020068B4022FA06FC4CEA030C07FA01F4A2
:1004100020FA06F3F7404FEA1C49234300FA01F89B
:100420001FFA8CFEB7FBF9F01C0C09FB107744EAAD
:10043000074400FB0EF7A74202FA01F20AD91CEBAF
:10044000040400F1FF3A80F09B80A74240F29880BC
:1004500002386444E41B9FB2B4FBF9F309FB134474
:1004600047EA044403FB0EFEA64509D91CEB04042D
:1004700003F1FF3780F08280A6457FD9023B6444B8
:1004800043EA0040A4EB0E04A0FB02E7BC42734623
:10049000B94663D360D05DB1B8EB030264EB0904E5
:1004A00004FA06F622FA01F31E43CC40C5E90064C3
:1004B00000214CE76208480842EAC1710B0C43EA8C
:1004C00000438AB242EA0342B3FBF6F1E407B446C2
:1004D0003746B6461F23B0FBF6F0D21B41EA004177
:1004E00061E7614614E7104628E7C3F1200120FACE
:1004F00001F29E4027FA01F19F403A434FEA164E1F
:100500001FFA86FCB1FBFEF70EFB1710110C41EA37
:10051000004107FB0CF8884504FA03F43AD9711836
:1005200007F1FF3001D288451FD8A1EB0801B1FBCC
:10053000FEF808FB0CF70EFB181192B242EA0142DA
:10054000BA422FD2B21808F1FF31C6D2BA42C4D291
:10055000A8F102013244C0E7F0459CD2BEEB020391
:1005600067EB0C070138B94695E7A6EB080841444C
:10057000B81EB1FBFEF808FB0CF7DCE73B467FE753
:10058000504667E70846FBE63444023832E7023F4C
:1005900032441BE7A1EB08013846B1FBFEF808FB2B
:1005A0000CF7C8E7414698E7704700BF80B584B0B4
:1005B00000AF78607B681B7803F00F03FB720023A9
:1005C000FB600CE0FB6801337A68134419780B4A2E
:1005D000FB6813440A461A70FB680133FB60FB7A20
:1005E000FA689A42EEDBFB7A9BB21946034800F0A8
:1005F00047FA00BF1037BD4680BD00BFA0000020F5
:1006000080B590B000AF78607B681B781BB21B028E
:100610001BB203F470631AB27B6801331B781BB200
:1006200013431BB29AB2394B1A8040F2A273FB619A
:1006300000233B6200237B620023BB620823FB6232
:10064000324B1B88B3F5807F22D93223BB60002355
:10065000FB604CF25033FB6300BF2D4804F0BAF945
:100660000346002B04D1FB6B5A1EFA63002BF4D116
:1006700007F1180307F1080207F11C01244804F0F0
:10068000D9F8224B00221A80224B00221A803AE02D
:100690000023BB630CE0BB6B02337A681344197808
:1006A0001D4ABB6B13440A461A70BB6B0133BB6314
:1006B000BB6B052B05DC154B1B881A46BB6B9342A5
:1006C000E9DB144B06221A80144B01221A703023E6
:1006D0003B6100237B614CF250337B6300BF0C48CD
:1006E00004F078F90346002B04D17B6B5A1E7A6321
:1006F000002BF4D107F1180307F1100207F11C01D8
:10070000034804F097F84037BD4680BD9C000020A8
:10071000800200209E000020A00000200000002099
:1007200080B586B000AF7860334B1B88002B5ED05D
:10073000324B1A88304B1B889A4258D27B681B7800
:1007400003F00F03FB742E4B1B78FA7C9A4206D001
:10075000294B00221A80294B00221A8048E0284B9E
:100760001B780133DBB203F00F03DAB2244B1A70AB
:10077000214B1A88214B1B88D31A3B823B8A072BBB
:1007800002D83B8ADBB200E00723FB7300237B61C6
:100790000EE07B6901337A681A44184B1B881946AE
:1007A0007B690B441178174AD1547B6901337B6113
:1007B000FB7B7A699A42ECDBFB7B9AB20F4B1B887E
:1007C00013449AB20D4B1A800C4B1A880A4B1B88A3
:1007D0009A420DD3084B1B8819460A4800F050F97D
:1007E000054B00221A80054B00221A8000E000BF52
:1007F0001837BD4680BD00BF9C0000209E00002031
:1008000000000020A000002080B483B000AF78601A
:10081000044B01221A7000BF0C37BD465DF8047B03
:10082000704700BFA001002080B584B000AF7860A1
:100830007B681B7823F00F03FB720023FB6011E041
:100840000C4AFB6812F83330FA7A9A4207D1094A07
:10085000FB68DB0013445B687868984706E0FB6838
:100860000133FB60FB68032BEADD00BF00BF1037DC
:10087000BD4680BD2086000880B594B000AFF8600A
:100880007A603B600B467B817B683B6200237B6226
:100890000023BB620023FB6208233B637B89072B99
:1008A00036D807F1140308220021184607F07AF819
:1008B0007B89DBB23B750023FB640CE0FB6CFA68C0
:1008C0001A44FB6C0133127850333B4403F83C2C40
:1008D000FB6C0133FB647B89FA6C9A42EEDB4CF2D1
:1008E0005033BB6400BF386804F074F80346002B33
:1008F00004D1BB6C5A1EBA64002BF4D107F11C035F
:1009000007F1140207F12001386803F093FFB2E009
:1009100007F1140308220021184607F043F87B89E9
:100920001B0A9BB25BB203F00F035BB243F01003F0
:100930005BB2DBB23B757B89DBB27B7500237B64EA
:100940000CE07B6CFA681A447B6C023312785033EB
:100950003B4403F83C2C7B6C01337B647B6C052BA4
:10096000EFDD4CF250333B6400BF386804F032F8DE
:100970000346002B04D13B6C5A1E3A64002BF4D181
:1009800007F11C0307F1140207F12001386803F096
:1009900051FF0623FB87012387F83D3067E00023E2
:1009A0003B6102E03B6901333B613B694CF24F32F2
:1009B0009342F7D907F1140308220021184606F0E4
:1009C000F1FF97F93D3003F00F035BB243F02003D2
:1009D0005BB2DBB23B757B89DAB2FB8FDBB2D31A39
:1009E00087F83C3097F83C30072B02D9072387F86B
:1009F0003C300023BB630FE0FA8FBB6B13441A46F5
:100A0000FB681A44BB6B0133127850333B4403F844
:100A10003C2CBB6B0133BB6397F83C30BA6B9A42FA
:100A2000EADB97F83C309AB2FB8F1344FB8797F8C8
:100A30003D300133DBB203F00F0387F83D304CF259
:100A400050333B6400BF386803F0C4FF0346002BFB
:100A500004D13B6C5A1E3A64002BF4D107F11C03FD
:100A600007F1140207F12001386803F0E3FEFA8F62
:100A70007B899A4293D300BF5037BD4680BD0000AA
:100A800080B584B000AF78600B467B807B68002B1C
:100A90002ED07B88002B2BD07B681B78FB72002329
:100AA000FB6013E0144AFB6812F83330FA7A9A427A
:100AB00009D1114AFB68DB0013445B687A88114650
:100AC0007868984715E0FB680133FB60FB68022BF0
:100AD000E8D97F233B72FB7A7B721123BB7207F14B
:100AE0000800064B40F2A2720321FFF7C5FE00E0AA
:100AF00000BF1037BD4680BD408600088002002040
:100B000080B590B000AF78600B467B807B68013386
:100B10001B781BB21B021AB27B6802331B781BB214
:100B200013431BB27B877B88032B11D05F4A07F1ED
:100B300030031268114619800233120C1A7007F143
:100B400030005B4B40F2A2720321FFF795FEA9E053
:100B50007B8F40F2231293421DD1622387F8283005
:100B6000012387F82930232387F82A30514B1B882B
:100B70001B0A9BB2DBB287F82B304E4B1B88DBB2D3
:100B800087F82C3007F12800494B40F2A27205216A
:100B9000FFF772FE86E07B8FB3F5927F4AD1464B1A
:100BA0001B883B873B8F002B11D1444A07F1200360
:100BB0001268114619800233120C1A7007F12000D6
:100BC0003B4B40F2A2720321FFF756FE6AE03B8FD7
:100BD00040F6E44202FB03F3394A82FB03121A4453
:100BE000D212DB17D31A7B637A6B13469B00134434
:100BF0005B00A3F5ED53103B324AA2FB0323DB0855
:100C0000DBB2193387F83330622387F824300123AD
:100C100087F82530242387F8263097F8333087F873
:100C2000273007F12400224B40F2A2720421FFF783
:100C300023FE37E07B8F4FF29012934221D1622343
:100C40003B73F1237B739023BB730023FB630CE0A6
:100C5000FB6B03331C49FA6B0A44127840333B4464
:100C600003F8342CFB6B0133FB63FB6B102BEFDDC4
:100C700007F10C000E4B40F2A2721421FFF7FCFDAD
:100C800010E0124A07F10803126811461980023376
:100C9000120C1A7007F10800054B40F2A2720321F2
:100CA000FFF7EAFD4037BD4680BD00BFC88200089F
:100CB0008002002020000020F0020020CC820008EA
:100CC000810008801F85EB5104000020D0820008BD
:100CD00080B592B000AF78600B467B807B88012B9B
:100CE00011D8AB4A07F13803126811461980023354
:100CF000120C1A7007F13800A64B40F2A2720321C1
:100D0000FFF7BAFD40E17B685B7887F83B3097F8E6
:100D10003B30012B6BD17B88022B11D09C4A07F111
:100D20002C031268114619800233120C1A7007F155
:100D30002C00984B40F2A2720321FFF79DFD23E1A6
:100D400002F01EFF0246944B1B68D31A42F20F7248
:100D5000934215D8904B1B68002B11D08F4A07F196
:100D600028031268114619800233120C1A7007F119
:100D70002800884B40F2A2720321FFF77DFD03E1BA
:100D8000874B12221A70864B34225A70844B56229B
:100D90009A70834B7822DA70814B9A221A71804BB9
:100DA000BC225A717F4B01221A70672387F83030BA
:100DB000012387F8313000237B640CE07B6C023325
:100DC00077497A6C0A44127848333B4403F8182C6C
:100DD0007B6C01337B647B6C052BEFDD07F130000E
:100DE0006C4B40F2A2720821FFF746FDCCE097F869
:100DF0003B30022B40F0B7807B88082B11D0644A2F
:100E000007F11C031268114619800233120C1A7084
:100E100007F11C005F4B40F2A2720321FFF72CFD8B
:100E2000B2E0604B1B78002B11D15F4A07F1180329
:100E30001268114619800233120C1A7007F118005B
:100E4000544B40F2A2720321FFF716FD9CE0554B74
:100E500000221A70524B1A78514B5B785340DBB228
:100E600087F820304E4B5A784D4B9B781344DBB2B9
:100E700087F821304A4B9A78494BDB785340DBB2F4
:100E800087F82230464BDA78454B1B781344DBB2A7
:100E900087F82330424B1B7923F00F03DBB287F82E
:100EA00024303F4B5B7903F00F03DBB287F825302A
:100EB000012387F843300023FB6312E0FB6B02330E
:100EC0007A6813441A7807F12001FB6B0B441B78F6
:100ED0009A4203D0002387F8433005E0FB6B0133CF
:100EE000FB63FB6B052BE9DD97F84330012B1BD12E
:100EF0002E4B01221A7002F043FE03462C4A136067
:100F0000254B00221A60012201212A4804F0F0FF3B
:100F100040F26723BB8207F114001E4B40F2A2721D
:100F20000221FFF7A9FC2FE0204B00221A7002F0EB
:100F300027FE0346184A1360002201211D4804F0D1
:100F4000D7FF1D4A07F110031268114619800233BA
:100F5000120C1A7007F110000E4B40F2A27203211E
:100F6000FFF78AFC10E0154A07F10C0312681146DE
:100F700019800233120C1A7007F10C00054B40F275
:100F8000A2720321FFF778FC4837BD4680BD00BF41
:100F9000D482000880020020A8010020D882000826
:100FA00018000020A1010020DC820008A20100201E
:100FB000A401002000040240E0820008E48200084E
:100FC00080B58CB000AF78600B467B80714B1B788E
:100FD000002B11D1704A07F12403126811461980C1
:100FE0000233120C1A7007F124006C4B40F2A2720B
:100FF0000321FFF741FCC9E07B88022B11D8684A26
:1010000007F120031268114619800233120C1A707E
:1010100007F12000614B40F2A2720321FFF72CFC84
:10102000B4E07B6801331B781BB21B021AB27B68E9
:1010300002331B781BB213431BB27B857B8D40F2BE
:101040002312934251D17B88052B11D0544A07F1CA
:1010500018031268114619800233120C1A7007F136
:1010600018004E4B40F2A2720321FFF705FC8DE001
:101070007B6803331B785BB2002B11DA494A07F116
:1010800014031268114619800233120C1A7007F10A
:101090001400424B40F2A2720321FFF7EDFB75E012
:1010A0007B6803331B781BB21B021AB27B680433C4
:1010B0001B781BB213431BB23B853B4A3B8D13800D
:1010C0003A4B01221A703A4A07F11C031268114682
:1010D00019800233120C1A7007F11C002F4B40F2DA
:1010E000A2720321FFF7C8FB50E07B8D4FF29012F4
:1010F00093423AD17B88142B11D0294A07F10C0373
:101100001268114619800233120C1A7007F10C0094
:10111000224B40F2A2720321FFF7AEFB36E0002320
:10112000FB620DE0FB6A03331A467B6813441978AF
:10113000204AFB6A13440A461A70FB6A0133FB62B9
:10114000FB6A102BEEDD1C4A07F1100312681146F2
:1011500019800233120C1A7007F110000F4B40F285
:10116000A2720321FFF788FB10E00E4A07F1080383
:101170001268114619800233120C1A7007F1080028
:10118000064B40F2A2720321FFF776FB3037BD46D3
:1011900080BD00BFA2010020E8820008800200207C
:1011A000EC820008F08200081E000020AC01002044
:1011B000F482000804000020F882000880B588B09E
:1011C00000AF0023BB60264B1B6B254A43F0010395
:1011D0001363234B1B6B03F00103BB60BB6800234D
:1011E0007B601F4B1B6B1E4A43F0020313631C4BB7
:1011F0001B6B03F002037B607B6807F10C0300228A
:101200001A605A609A60DA601A614FF4C673FB6024
:1012100001233B6100237B610223BB6107F10C03C7
:101220001946104804F0C8FC8023FB6001233B6191
:1012300000237B610223BB6107F10C0319460A48B6
:1012400004F0BAFC01228021064804F051FE01227C
:101250000821044804F04CFE00BF2037BD4680BD85
:1012600000380240000402400000024080B584B013
:1012700000AF0346FB710723FB601FE0002208213B
:10128000124804F035FEFA79FB6842FA03F303F0E2
:101290000103002B05D0012280210D4804F028FE17
:1012A00004E0002280210A4804F022FE01220821E5
:1012B000064804F01DFEFB68013BFB60FB68002B49
:1012C000DCDA00BF00BF1037BD4680BD000402401D
:1012D0000000024080B582B000AF0346FB710022DF
:1012E0004FF480710A4804F003FE00228021084870
:1012F00004F0FEFDFB791846FFF7B8FF01228021BC
:10130000034804F0F5FD00BF0837BD4680BD00BFAF
:101310000004024080B582B000AF0346FB71012299
:101320004FF480710A4804F0E3FD00228021084850
:1013300004F0DEFDFB791846FFF798FF01228021BB
:10134000034804F0D5FD00BF0837BD4680BD00BF8F
:101350000004024090B583B000AF04460846114631
:101360001A462346FB800346BB800B467B80134610
:101370003B802A20FFF7AEFFFB881B0A9BB2DBB243
:101380001846FFF7C7FFFB88DBB21846FFF7C2FF1E
:101390007B881B0A9BB2DBB21846FFF7BBFF7B883A
:1013A000DBB21846FFF7B6FF2B20FFF793FFBB8891
:1013B0001B0A9BB2DBB21846FFF7ACFFBB88DBB25F
:1013C0001846FFF7A7FF3B881B0A9BB2DBB2184603
:1013D000FFF7A0FF3B88DBB21846FFF79BFF2C20EE
:1013E000FFF778FF00BF0C37BD4690BD80B500AF5A
:1013F000FFF7E4FE012204213E4804F079FD32208B
:1014000002F0CAFB002204213A4804F071FD642076
:1014100002F0C2FB01220421364804F069FD962047
:1014200002F0BAFB0120FFF755FF962002F0B4FB53
:101430001120FFF74FFF782002F0AEFB3620FFF7B8
:1014400049FF0020FFF766FF3A20FFF743FF052022
:10145000FFF760FFB220FFF73DFF0C20FFF75AFFB8
:101460000C20FFF757FF0020FFF754FF3320FFF752
:1014700051FF3320FFF74EFFB720FFF72BFF35203A
:10148000FFF748FFBB20FFF725FF1920FFF742FFBA
:10149000C020FFF71FFF2C20FFF73CFFC220FFF703
:1014A00019FF0120FFF736FFC320FFF713FF1220BB
:1014B000FFF730FFC420FFF70DFF2020FFF72AFFC2
:1014C000C620FFF707FF0F20FFF724FFD020FFF70C
:1014D00001FFA420FFF71EFFA120FFF71BFF212023
:1014E000FFF7F8FE2920FFF7F5FE322002F054FB4B
:1014F00000BF80BD0004024080B584B000AF034649
:10150000FB8040F23F13EF2200210020FFF722FF73
:1015100001224FF48071144804F0EAFC002280217B
:10152000114804F0E5FCFB881B0A9BB2FB72FB88A8
:10153000BB720023FB600AE0FB7A1846FFF796FEB9
:10154000BB7A1846FFF792FEFB680133FB60FB682D
:10155000B3F5963FF0D301228021034804F0C8FC84
:1015600000BF1037BD4680BD0004024090B587B073
:1015700000AF0446084611461A462346FB80034640
:10158000BB800B467B8013463B807B88002B5BD067
:101590003B88002B58D0FB88EF2B55D8BB88B3F580
:1015A000A07F51D2FA887B881344F02B03DDFB889F
:1015B000C3F1F0037B80BA883B881344B3F5A07F66
:1015C00003DDBB88C3F5A0733B80FA887B88134496
:1015D0009BB2013B9CB2BA883B8813449BB2013B4F
:1015E0009BB2B988F8882246FFF7B4FE01224FF477
:1015F0008071174804F07CFC00228021144804F01C
:1016000077FC3B8D1B0A9BB2FB743B8DBB747B88C4
:101610003A8802FB03F3FB6000237B610AE0FB7C5A
:101620001846FFF723FEBB7C1846FFF71FFE7B69B9
:1016300001337B617A69FB689A42F0D301228021F1
:10164000034804F055FC00E000BF1C37BD4690BDC8
:101650000004024090B585B002AF0446084611462A
:101660001A462346FB800346BB800B467B8013460D
:101670003B807A88B988F8883B8800930123FFF77C
:1016800075FF00BF0C37BD4690BD90B585B002AF69
:101690000446084611461A462346FB800346BB8093
:1016A0000B467B8013463B807A88B988F8883B8854
:1016B000009313460122FFF759FF00BF0C37BD46C8
:1016C00090BD90B583B000AF0446084611461A4657
:1016D0002346FB800346BB800B467B8013463B8042
:1016E0003B8B7A88B988F888FFF7B4FFBA883B88C3
:1016F00013449BB2013B99B23B8B7A88F888FFF781
:10170000A9FF3B8B3A88B988F888FFF7BEFFFA88B3
:101710007B8813449BB2013B98B23B8B3A88B988D3
:10172000FFF7B3FF00BF0C37BD4690BD90B587B043
:1017300002AF0446084611461A462346FB8003467C
:10174000BB800B467B8013463B8097F82030642B90
:1017500002D9642387F820303C887A88B988F888D1
:10176000BB8D00932346FFF7ACFF7B88022B38BF6D
:1017700002239BB2023BFB813B88022B38BF022332
:101780009BB2023BBB81FB8997F8202002FB03F34D
:10179000184A82FB03125211DB17D31A7B817B8913
:1017A000002B0CD0FB88013398B2BB88013399B26F
:1017B000BC897A89BB8C00932346FFF7D7FE7A89D0
:1017C000FB899A4212D2FA887B8913449BB2013377
:1017D00098B2BB88013399B2FA897B89D31A9AB23D
:1017E000BC893B8D00932346FFF7C0FE00BF143732
:1017F000BD4690BD1F85EB5190B589B002AFBA6070
:101800001A460346FB810B46BB811346FB80B86832
:10181000FEF7DEFC0346FB75FB7D01339BB21A46E7
:10182000D200D31ABB820E237B827C8ABA8AB98902
:10183000F8893B8D00932346FFF798FEFB8904331C
:1018400098B2BB89013399B2FA883B8D0093134655
:10185000BA6800F0C3F800BF1C37BD4690BD000059
:1018600090B589B000AF0446084611461A46234693
:10187000FB800346BB800B46FB7013463B80FB7826
:101880001F2B40F2A080FB787E2B00F29C80FB880F
:10189000E92B00F29A80BB88B3F59A7F00F295801D
:1018A000FB78203B3B770023FB7726E03A7FFB7FEA
:1018B0005900484813465B0013449B0003440B4403
:1018C0001B781BB21B0219B23A7FFB7F5B00581CCE
:1018D000404C13465B0013449B00234403441B7895
:1018E0001BB20B431AB2FB7F92B25B0020333B4426
:1018F00023F8182CFB7F0133FB77FB7F052BD5D911
:101900003B881B0A9BB2FB763B88BB763B8E1B0A4F
:101910009BB27B763B8E3B76FB8806339AB2BB88C4
:101920000B339BB2B988F888FFF714FD01224FF4FE
:101930008071294804F0DCFA00228021264804F056
:10194000D7FA0023BB7735E0BB7F4FF4004242FA61
:1019500003F3FB8200237B771EE07B7F5B00203359
:101960003B4433F8182CFB8A13409BB2002B08D061
:10197000FB7E1846FFF77AFCBB7E1846FFF776FC25
:1019800007E07B7E1846FFF771FC3B7E1846FFF7A9
:101990006DFC7B7F01337B777B7F052BDDD97B7EE5
:1019A0001846FFF763FC3B7E1846FFF75FFCBB7FE2
:1019B0000133BB77BB7F0B2BC6D9012280210648A0
:1019C00004F096FA02E000BF00E000BF2437BD46F5
:1019D00090BD00BF588600080004024090B587B053
:1019E00002AFBA601A460346FB810B46BB81134621
:1019F000FB800FE0BB681A78FC88B989F8893B8CBA
:101A000000932346FFF72CFFFB890733FB81BB685C
:101A10000133BB60BB681B78002BEBD100BF00BF5C
:101A20001437BD4690BD000090B58BB000AF0446A2
:101A3000084611461A462346FB800346BB800B46E8
:101A4000FB7013463B80FB781F2B40F2E480FB7851
:101A50007E2B00F2E080FB88E22B00F2DE80BB8868
:101A6000B3F5947F00F2D980FB78203B87F82130D2
:101A7000002387F827302DE097F8212097F82730AA
:101A80005900684813465B0013449B0003440B4411
:101A90001B781BB21B0219B297F8212097F8273048
:101AA0005B00581C5F4C13465B0013449B002344AF
:101AB00003441B781BB20B431AB297F8273092B23B
:101AC0005B0028333B4423F81C2C97F82730013364
:101AD00087F8273097F82730052BCDD93B881B0A8C
:101AE0009BB287F820303B88FB773B8F1B0A9BB269
:101AF000BB773B8F7B77FB880D339AB2BB8817335C
:101B00009BB2B988F888FFF725FC01224FF4807159
:101B1000454804F0EDF900228021434804F0E8F93B
:101B2000002387F826306CE097F826304FF4004207
:101B300042FA03F37B83002387F8253058E0002323
:101B400087F8243036E097F824305B0028333B4494
:101B500033F81C2C7B8B13409BB2002B14BF01234A
:101B60000023DBB27B76002387F8233019E07B7EED
:101B7000002B09D097F820301846FFF777FBFB7F42
:101B80001846FFF773FB07E0BB7F1846FFF76EFBB5
:101B90007B7F1846FFF76AFB97F82330013387F8FD
:101BA000233097F82330012BE1D997F82430013303
:101BB00087F8243097F82430052BC4D9002387F800
:101BC00022300CE0BB7F1846FFF750FB7B7F1846A6
:101BD000FFF74CFB97F82230013387F8223097F853
:101BE0002230012BEED997F82530013387F82530C4
:101BF00097F82530012BA2D997F82630013387F8C2
:101C0000263097F826300B2B8ED9012280210648EA
:101C100004F06EF902E000BF00E000BF2C37BD46C3
:101C200090BD00BF588600080004024090B587B000
:101C300002AFBA601A460346FB810B46BB811346CE
:101C4000FB800FE0BB681A78FC88B989F8893B8C67
:101C500000932346FFF7E8FEFB890E33FB81BB6848
:101C60000133BB60BB681B78002BEBD100BF00BF0A
:101C70001437BD4690BD000080B584B002AF034666
:101C8000FB710020FFF738FC4FF4604300930423FE
:101C9000F02200210020FFF769FC40F66203009368
:101CA0002023F02204210020FFF760FC40F66203AD
:101CB000009340F2FF738D4A08210620FFF78EFE45
:101CC00040F66203009347F6EF33894A1621062057
:101CD000FFF784FE42F28713F02224210020FFF751
:101CE000B9FCFB79002B09D04FF6E0530093002399
:101CF000804A28210620FFF77FFD08E04FF4FC63AF
:101D0000009300237C4A28210620FFF775FD00235D
:101D1000009347F6EF33794A2A21B020FFF75EFEA1
:101D200040F6420300935423E42239210620FFF7B2
:101D30001DFC42F2871300935423E422392106202C
:101D4000FFF7BFFC40F64203009340F2FF736C4A7A
:101D50003D210A20FFF742FE42F28713DC224A218E
:101D60000A20FFF777FC40F64203009347F6EF3373
:101D7000644A4E210A20FFF731FE40F642030093E9
:101D800047F6EF33604A5D210A20FFF727FE40F651
:101D90004203009347F6EF335C4A6C210A20FFF7B9
:101DA0001DFE40F64203009340F2FF73584A7C2127
:101DB0000A20FFF713FE40F6420300934C23E4226F
:101DC00092210620FFF7D2FB42F2871300934C23A7
:101DD000E42292210620FFF774FC40F642030093B0
:101DE0004FF6E0534B4A96210A20FFF7F7FD42F2E7
:101DF0008713DC22A3210A20FFF72CFC40F64203C4
:101E0000009347F6EF33444AA7210A20FFF7E6FD87
:101E100040F64203009347F6EF33404AB8210A20C8
:101E2000FFF7DCFD40F64203009347F6EF333C4AF0
:101E3000C8210A20FFF7D2FD40F642030093442355
:101E4000E422E3210620FFF791FB42F2871300937F
:101E50004423E422E3210620FFF733FC40F642034B
:101E600000934FF4FC632F4AE7210A20FFF7B6FDE9
:101E700042F28713DC22F4210A20FFF7EBFB40F645
:101E80004203009347F6EF33274AF9210A20FFF770
:101E9000A5FD40F64203009347F6EF33234A4FF483
:101EA0008C710A20FFF79AFD40F66203009312231B
:101EB000F0224FF497710020FFF758FB42F287138E
:101EC000F02240F22D110020FFF7C4FB40F6620320
:101ED00000934FF6FF73164A40F231110820FFF7C6
:101EE0007DFD00BF0837BD4680BD00BFFC820008F5
:101EF00010830008248300083C83000854830008F2
:101F00006083000884830008908300089C83000895
:101F1000A8830008CC830008E0830008F083000851
:101F200000840008108400082C840008388400080D
:101F30005C84000880B594B004AFF860B9603B6081
:101F40001346FB80C34B1B7883F00103DAB2C14B0D
:101F50001A70FB68C04AA2FB03235B09FB63FA68A3
:101F6000BD4BA3FB021359090B461B015B1A9B00D7
:101F7000D31ABB6307F11400BB6BFA6BB74905F0CA
:101F8000EFFC07F1140240F6620300934FF6FF7373
:101F90000821A820FFF722FDAE4B1B78002B01D0B3
:101FA0002A2200E0202240F6620300934FF4FC63F3
:101FB0000821D820FFF754FCBB681B781A46BB6881
:101FC00001331B7807F11400A54905F0C9FC07F19E
:101FD000140240F6420300934FF6FF734E21542043
:101FE000FFF7FCFC40F6420300934FF4FC639D4A6C
:101FF0004E21A520FFF7F2FCFB88B3F5006F07D355
:10200000FA8807F114039849184605F0A9FC06E080
:10201000FA8807F114039549184605F0A1FC07F169
:10202000140240F64203009347F6EF335D210A2085
:10203000FFF7D4FC3B681B781A463B6801331B78DA
:1020400019463B6802331B7807F1140000930B46D6
:10205000874905F085FC07F1140240F6420300931E
:102060004FF6FF735D215420FFF7B8FC40F64203A2
:1020700000934FF4FC637B4A5D21A520FFF7AEFC83
:1020800097F8482007F114037A49184605F068FCD0
:1020900007F1140240F6420300934FF6FF736C21E0
:1020A0005420FFF79BFC40F6420300934FF4FC637F
:1020B000714A6C21A520FFF791FC97F85030002B56
:1020C0000AD040F6420300934FF4FC636B4AA72109
:1020D0007020FFF783FC09E040F6420300934FF4C1
:1020E0007843674AA7217020FFF778FCFB88B3F597
:1020F000006F07D3FA8807F114036249184605F008
:102100002FFC06E0FA8807F114035F49184605F032
:1021100027FC07F1140240F6420300934FF6FF73C9
:10212000B8217020FFF75AFC97F85830002B21D0C7
:10213000B7F85430B3F5006F08D3B7F8542007F15F
:1021400014035249184605F00BFC07E0B7F8542079
:1021500007F114034E49184605F002FC07F114027A
:1021600040F64203009340F2FF73C8217020FFF74E
:1021700035FC09E040F64203009347F6EF33454A49
:10218000C8217020FFF72AFC97F84C2007F11403B0
:102190004149184605F0E4FB07F1140240F64203FA
:1021A00000934FF6FF73F6215020FFF73FFD97F89D
:1021B0004C302C2B0AD840F6420300934FF4FC63BA
:1021C000364AF921A520FFF709FC09E040F6420351
:1021D00000934FF6E053324AF921A520FFF7FEFBAA
:1021E00097F84C30502B0CD897F84C30642202FBF7
:1021F00003F32C4A82FB03125211DB17D31ADBB212
:1022000000E0642387F8373097F84C30222B09D947
:1022100097F84C30312B02D84FF4FC6304E04FF4B4
:10222000784301E040F2FF73BB8642F287130393C9
:1022300000230293BB8E019397F837300093082355
:10224000D8224FF486710C20FFF770FA00BF403798
:10225000BD4680BDAD010020898888888084000843
:102260008C8400089C840008A8840008B4840008BA
:10227000C0840008D4840008E0840008EC840008CE
:102280000085000814850008288500083C850008A2
:10229000508500086485000878850008808500085E
:1022A0008C8500086766666680B58EB000AF786082
:1022B0000B467B807B88002B00F001817B88072BFD
:1022C00042D807F1180300221A605A607B88DBB2FB
:1022D0003B7600237B630CE07B6B7A681A447B6B54
:1022E0000133127838333B4403F8202C7B6B0133E5
:1022F0007B637B887A6B9A42EEDB734B40F21272FF
:102300001A60714B00225A606F4B00229A606E4B2C
:102310000022DA606C4B08221A614CF250333B63A6
:1023200000BF6A4802F056FB0346002B04D13B6B0A
:102330005A1E3A63002BF4D107F11802644B62492C
:10234000624802F077FABBE007F1100300221A603E
:102350005A607B881B0A9BB25BB203F00F035BB22F
:1023600043F010035BB2DBB23B747B88DBB27B745F
:102370000023FB620CE0FB6A7A681A44FB6A0233B2
:10238000127838333B4403F8282CFB6A0133FB6294
:10239000FB6A052BEFDD4C4B40F212721A604A4B80
:1023A00000225A60484B00229A60474B0022DA60B4
:1023B000454B08221A614CF25033BB6200BF4348C0
:1023C00002F008FB0346002B04D1BB6A5A1EBA6216
:1023D000002BF4D107F110023D4B3B493B4802F082
:1023E00029FA0A2001F0D8FB0623FB84012387F891
:1023F00025305FE007F1080300221A605A6097F960
:10240000253003F00F035BB243F020035BB2DBB275
:102410003B727B88DAB2FB8CDBB2D31A87F82430AC
:1024200097F82430072B02D9072387F8243000239C
:102430003B620FE0FA8C3B6A13441A467B681A44ED
:102440003B6A0133127838333B4403F8302C3B6A43
:1024500001333B6297F824303A6A9A42EADB97F8F4
:1024600024309AB2FB8C1344FB8497F82530013357
:10247000DBB203F00F0387F825304CF25033BB6218
:1024800000BF124802F0A6FA0346002B04D1BB6A33
:102490005A1EBA62002BF4D107F108020C4B0A490C
:1024A0000A4802F0C7F9FA8C7B889A4202D20520CA
:1024B00001F072FBFA8C7B889A429BD300E000BF4C
:1024C0003837BD4680BD00BFF4020020580200200E
:1024D000AC03002090B58DB006AF01F0EBFA00F030
:1024E0000DFA00F081FB00F05FFB00F0C3FA00F092
:1024F000F9FA00F02FFB00F06BFA00F005FC00F099
:1025000045FC01229649974804F0A3FA0122964916
:10251000964801F0A9FB964B12221A60944B1B6857
:102520009BB29449184600F091FCFEF75FFF012032
:10253000FFF7A2FB904B1B78DBB2012B14D18F4B22
:102540001B889BB2052B08D98C4B1B889BB2063B82
:102550009BB219468A48FFF7A7FE884B00221A80D3
:10256000854B00221A7058E0844B1B889BB2002BCD
:1025700053D001F005FB0246824B1B68D31A0E2B89
:102580004BD97E4B1B889BB2052B2DD97E4B1B78DC
:102590000F2B29D17C4B5B78FF2B25D17A4B9B7875
:1025A000F02B21D1754B1B889BB2033B764AD35C41
:1025B000F02B19D1714B1B889BB2023B724AD35C42
:1025C000002B11D16D4B1B889BB2013B6E4AD35C33
:1025D0000F2B09D1694B1B889BB2063B9BB2194656
:1025E0006748FFF761FE12E0674B1B780F2B07D19E
:1025F000654B5B78FF2B03D1634B9B78F02B06D0A8
:102600005E4B1B889BB219465F48FFF74DFE5B4B44
:1026100000221A80584B00221A7001F0B1FA0246CB
:102620005A4B1B68D31AB3F5FA7F40D301F0A8FACE
:102630000346564A13604C4B1B881A4640F6E44347
:1026400002FB03F3524A82FB03121A44D212DB1735
:10265000D31AFB60FA6813469B0013445B00A3F592
:10266000ED53103B4B4AA2FB0323DB08DBB21933CB
:10267000FB7201F085FA0346474AA2FB03239B093C
:102680007B60464B1C883B4B9B79454A12784549F9
:10269000098845480078049003910292FA7A0192E1
:1026A0000093344B224641497868FFF743FC3C4B8A
:1026B0001B78012B11D101F063FA02463C4B1B68D9
:1026C000D31A41F28732934207D9354B00221A7050
:1026D00000220121374803F00BFC374B1A68374BB7
:1026E0001B68D31A312B40F29B80344B1B6832336A
:1026F000324A13602D4B1A781E4B1A702B4B5A78A6
:102700001C4B5A70294B1A78284B5B781344DAB269
:10271000184B9A70174B0022DA70164B00221A7170
:10272000144B00225A710621124800F0ABFC0346FC
:102730001A46104B9A710F4B0022DA71174B1B8807
:10274000B3F5006F3CD30A4B00221A60134B1B8871
:102750001A46074B5A60064B04229A603BE000BFC2
:10276000BC130020A8020020F0020020B0010020CD
:10277000F4020020C0130020B6030020B4030020A0
:10278000BF030020B8030020BC030020E413002096
:10279000810008801F85EB51D34D6210200000207E
:1027A000A20100201E000020AC010020C813002060
:1027B000A401002000040240E0130020E8130020E0
:1027C000414B1B881A46414B1A60404B00225A600D
:1027D0003E4B00229A603D4B0022DA603B4B0822C0
:1027E0001A614CF250337B6100BF394802F0F2F8B5
:1027F0000346002B04D17B695A1E7A61002BF4D169
:10280000344B354A3149324802F014F8334B1B68D7
:10281000334A13602C4B1B882F49184600F016FBD7
:102820002E4B1A682F4B1B68D31A132B7FF682AEE0
:102830002A4B1B682B4A13602B4B22221A702A4BFF
:1028400033225A70284B00229A70274B0022DA70EC
:10285000254B00221A71244B00225A71224B002270
:102860009A71224B1A78204BDA71204B1B78013376
:10287000DAB21E4B1A701D4B1B780F2B02D91B4B63
:1028800000221A701A4BA2221A60194B00229A6079
:10289000174B0022DA60164B08221A614CF25033B3
:1028A0003B6100BF134802F095F80346002B04D1AA
:1028B0003B695A1E3A61002BF4D10F4B0A4A0C496E
:1028C0000C4801F0B7FF35E620000020F40200209C
:1028D00058020020AC030020C0130020E0130020A9
:1028E000EC130020F0130020D0130020F41300207C
:1028F0005003002080020020B003002080B594B077
:1029000000AF07F1200330220021184605F04AF8F5
:1029100007F10C0300221A605A609A60DA601A61AB
:102920000023BB60284B1B6C274A43F08053136481
:10293000254B1B6C03F08053BB60BB6800237B609E
:10294000224B1B68214A43F4804313601F4B1B68D2
:1029500003F480437B607B6802233B620123FB62BC
:1029600010233B630223BB630023FB6308233B6408
:10297000A8237B640223BB640423FB6407F12003C8
:10298000184603F0F3FA0346002B01D000F0B5FB24
:102990000F23FB6002233B6100237B614FF4A053B4
:1029A000BB614FF48053FB6107F10C03052118460E
:1029B00003F054FD0346002B01D000F09EFB00BF46
:1029C0005037BD4680BD00BF003802400070004057
:1029D00080B584B000AF3B4600221A605A609A600E
:1029E000DA60214B214A1A601F4B4FF480325A6043
:1029F0001D4B00229A601C4B00221A611A4B0022C8
:102A00001A76194B002283F82020174B0022DA6235
:102A1000154B174A9A62144B0022DA60124B0122BE
:102A2000DA61114B012283F830200F4B01225A61E9
:102A30000D4801F0D5F80346002B01D000F05DFBF6
:102A400010233B6001237B600723BB603B46194694
:102A5000054801F031FA0346002B01D000F04DFB90
:102A600000BF1037BD4680BDB001002000200140EE
:102A70000100000F80B500AF184B194A1A60174BC0
:102A800006225A60154B00229A60144B4FF0807258
:102A9000DA60124B4FF410221A61104B4FF40012FF
:102AA0005A610E4B00221A760C4B00225A760B4BC1
:102AB00000229A76094B0022DA76084B00221A7718
:102AC000064B00225A77054801F096FC0346002B7E
:102AD00001D000F012FB00BF80BD00BF58020020F3
:102AE0000064004080B500AF184B194A1A60174BBC
:102AF00006225A60154B00229A60144B4FF08072E8
:102B0000DA60124B4FF410221A61104B4FF400128E
:102B10005A610E4B00221A760C4B00225A760B4B50
:102B200000229A76094B0022DA76084B00221A77A7
:102B3000064B00225A77054801F05EFC0346002B45
:102B400001D000F0DAFA00BF80BD00BF8002002093
:102B50000068004080B500AF114B124A1A60104B5C
:102B60004FF4E1325A600E4B00229A600C4B002267
:102B7000DA600B4B00221A61094B0C225A61084B98
:102B800000229A61064B0022DA61054803F086FEB6
:102B90000346002B01D000F0B0FA00BF80BD00BF9B
:102BA000A80200200048004080B582B000AF00239A
:102BB0007B600C4B1B6B0B4A43F480031363094B84
:102BC0001B6B03F480037B607B68002200213820AC
:102BD00002F0B9FB382002F0D2FB00BF0837BD4637
:102BE00080BD00BF0038024080B58AB000AF07F159
:102BF000140300221A605A609A60DA601A61002396
:102C00003B613D4B1B6B3C4A43F0040313633A4B5F
:102C10001B6B03F004033B613B690023FB60364BF5
:102C20001B6B354A43F080031363334B1B6B03F07C
:102C30008003FB60FB680023BB602F4B1B6B2E4A9D
:102C400043F0010313632C4B1B6B03F00103BB60C8
:102C5000BB6800237B60284B1B6B274A43F00203B1
:102C60001363254B1B6B03F002037B607B6842F20E
:102C7000F0037B610023BB610123FB6107F11403B7
:102C800019461E4802F098FF01237B614FF404139C
:102C9000BB610123FB6107F114031946184802F0D8
:102CA0008BFF02237B610023BB610123FB6107F1E2
:102CB00014031946124802F07FFF0022012106206A
:102CC00002F041FB062002F05AFB03237B61012343
:102CD000BB610023FB6100233B6207F1140319462B
:102CE000084802F069FF00220321064803F000F9BA
:102CF00000BF2837BD4680BD0038024000080240B2
:102D0000000002400004024080B500AF1D4B0122CC
:102D10001A621C4B00225A611A4B00221A61194B8D
:102D200001229A61174B0022DA61164B4FF4A2522E
:102D30001A60144B4FF240425A60124B00229A60C4
:102D4000104B0022DA600F4B0E225A620D490E48DA
:102D500001F04EFC0346002B01D000F0CEF90A48EA
:102D600001F024FD0346002B01D000F0C6F902213A
:102D7000054801F0AEFF0346002B01D000F0BDF97D
:102D800000BF80BD280300205802002080B500AF9E
:102D9000164B01221A62154B0E225A61134B002268
:102DA0001A61124B01229A61104B0022DA610F4B1B
:102DB0004FF410721A600D4B4EF240225A600B4BCA
:102DC00000229A60094B0022DA60084B0E225A62F8
:102DD0000649074801F00CFC054801F0E7FC022118
:102DE000034801F076FF00BF80BD00BF84030020D0
:102DF0008002002080B582B000AF786001220449D3
:102E0000044800F031FF00BF0837BD4680BD00BF59
:102E1000F0020020B001002080B582B000AF7860E1
:102E200009E04FF0FF3301227968074803F086FD7F
:102E30007B6801337B607B681B78002BF1D100BF7E
:102E400000BF0837BD4680BDA8020020F0B5A9B07C
:102E500008AF03463961FB82FB8AB3F5006F33D3B9
:102E6000374B1A68F98A3B691B781C463B6901336A
:102E70001B781D463B6902331B781E463B690333B2
:102E80001B78FB603B6904331B78BB603B690533EF
:102E90001B787B603B6906331B783B603B690733DB
:102EA0001B7807F11C0007933B6806937B6805932A
:102EB000BB680493FB6803930296019500940B464C
:102EC000204904F04DFD32E01D4B1A68F98A3B6938
:102ED0001B781C463B6901331B781D463B69023356
:102EE0001B781E463B6903331B78FB603B69043348
:102EF0001B78BB603B6905331B787B603B690633FD
:102F00001B783B603B6907331B7807F11C00079374
:102F10003B6806937B680593BB680493FB68039347
:102F20000296019500940B46074904F019FD07F13C
:102F30001C031846FFF770FF00BF8437BD46F0BD85
:102F4000E013002098850008DC85000880B582B079
:102F500000AF78607B681B68284A93424AD100F032
:102F60000FFE0346264A1360264B1B78DBB2002B6C
:102F700040D1254B1B889BB2B3F5805F3AD2224BE0
:102F80001B889BB21A46214B1978214B99541E4B32
:102F90001B889BB201339AB21B4B1A801A4B1B88B9
:102FA0009BB2062B26D91A4B1B780F2B22D1184B1C
:102FB0005B78FF2B1ED1164B9B78F02B1AD1124B4E
:102FC0001B889BB2033B124AD35CF02B12D10E4BF1
:102FD0001B889BB2023B0E4AD35C002B0AD10A4BE2
:102FE0001B889BB2013B0A4AD35C0F2B02D1054BD5
:102FF00001221A7000BF0837BD4680BD004800405E
:10300000B8030020B6030020B4030020BC13002046
:10301000BC03002080B586B000AF78607B681B6879
:10302000164A934225D100237B617B681B681B688D
:103030007B617B681B685B687B617B6900233B610C
:103040007B681B681B683B617B681B685B683B6136
:103050003B690023FB607B681B681B68FB607B6827
:103060001B685B68FB60FB6801220549786803F018
:10307000F0FC00BF1837BD4680BD00BF00480040CF
:10308000BC13002080B485B000AF78600B46FB70A5
:10309000FF23FB730023BB7322E0BB7B7A681344DE
:1030A0001A78FB7B5340FB7300237B7312E097F984
:1030B0000F30002B08DA97F90F305B005BB283F01A
:1030C0001D035BB2FB7302E0FB7B5B00FB737B7B4E
:1030D00001337B737B7B072BE9D9BB7B0133BB734C
:1030E000BA7BFB789A42D8D3FB7BDB43DBB2184632
:1030F0001437BD465DF8047B704780B400AF72B6EC
:1031000000BF00BFFDE7000080B483B000AF002324
:103110007B60104B5B6C0F4A43F4804353640D4B50
:103120005B6C03F480437B607B6800233B60094B4E
:103130001B6C084A43F080531364064B1B6C03F06E
:1031400080533B603B6800BF0C37BD465DF8047B95
:10315000704700BF0038024080B584B000AF78608F
:103160007B681B68224A93423ED10023FB60214BBF
:103170005B6C204A43F4807353641E4B5B6C03F416
:103180008073FB60FB681C4B1C4A1A601A4B0022C0
:103190005A60194B00229A60174B0022DA60164BD6
:1031A0004FF480621A61144B4FF400625A61124B63
:1031B0004FF400529A61104B4FF48072DA610E4B5B
:1031C0004FF480321A620C4B00225A620A4802F015
:1031D000F1F80346002B01D0FFF78FFF7B68064A0A
:1031E0009A63054A7B68936300BF1037BD4680BD74
:1031F0000020014000380240F80100201064024025
:1032000080B58CB000AF786007F11C0300221A6013
:103210005A609A60DA601A617B681B684A4A934276
:103220003ED14A4B1B680133484A1360474B1B6829
:10323000012B0DD10023BB61454B1B6C444A43F06D
:1032400000731364424B1B6C03F00073BB61BB69DA
:1032500000237B613E4B1B6B3D4A43F0010313632C
:103260003B4B1B6B03F001037B617B694FF4C05345
:10327000FB6102233B6200237B620323BB620923C1
:10328000FB6207F11C031946324802F095FC00224C
:103290000221142002F057F8142002F070F84FE0D9
:1032A0007B681B682C4A93424AD100233B61284B20
:1032B0001B6C274A43F080631364254B1B6C03F09F
:1032C00080633B613B69214B1B6801331F4A1360DC
:1032D0001E4B1B68012B0DD10023FB601C4B1B6C8C
:1032E0001B4A43F000731364194B1B6C03F000730B
:1032F000FB60FB680023BB60154B1B6B144A43F05B
:1033000002031363124B1B6B03F00203BB60BB6829
:103310006023FB6102233B6200237B620323BB62C9
:103320000923FB6207F11C0319460C4802F044FC18
:1033300000220221402002F006F8402002F01FF88F
:1033400000BF3037BD4680BD00640040F813002048
:1033500000380240000002400068004000040240C3
:1033600080B58AB000AF786007F1140300221A60BC
:103370005A609A60DA601A617B681B681D4A934242
:1033800034D100233B611C4B1B6C1B4A43F480234C
:103390001364194B1B6C03F480233B613B690023CE
:1033A000FB60154B1B6B144A43F004031363124B71
:1033B0001B6B03F00403FB60FB684FF440637B610D
:1033C0000223BB610023FB6103233B6207237B6273
:1033D00007F114031946094802F0EEFB002201210F
:1033E000272001F0B0FF272001F0C9FF00BF2837D8
:1033F000BD4680BD00480040003802400008024041
:1034000080B400AF00BFFDE780B400AF00BFFDE7B0
:1034100080B400AF00BFFDE780B400AF00BFFDE7A0
:1034200080B400AF00BFFDE780B400AF00BFBD4671
:103430005DF8047B704780B400AF00BFBD465DF807
:10344000047B704780B400AF00BFBD465DF8047BCD
:103450007047000080B500AF00F07EFB034B1B6897
:103460000133024A136000BF80BD00BFE01300209B
:1034700080B500AF012002F055FD0D4B1B78012BEC
:1034800014D10B4B00221A700A4B1A880A4B1A806F
:10349000084B1B885B019BB2084A1360074B4EF236
:1034A00040225A600549064801F0A2F800BF80BDDD
:1034B000AC0100201E00002020000020840300201A
:1034C0008002002080B5E8B000AFBF4801F027FCC3
:1034D0001DE207F5B673BD4A0021BB4801F0AFFA03
:1034E0000346002B40F01C82B84B1B68A22B19D15D
:1034F0000023C7F89C3110E007F5B672D7F89C316D
:1035000013441978B24AD7F89C3113440A461A700A
:10351000D7F89C310133C7F89C31D7F89C31072B81
:10352000EADDF4E1A94B1B6840F2A272934240F03D
:10353000EE8197F86C3123F00F0387F87B3197F811
:103540007B31002B70D197F86C3103F00F0387F8B3
:10355000763197F87631002B00F0D98197F87631E3
:10356000072B00F2D4810F2387F85831FF2387F807
:103570005931F02387F85A310023C7F8983114E005
:10358000D7F898315A1CD7F89831033302F5D07226
:103590003A4412F8342C03F5D0733B4403F8482C1A
:1035A000D7F898310133C7F8983197F87631D7F8C2
:1035B00098219A42E4DB97F87631033303F5D07310
:1035C0003B44F02203F8482C97F87631043303F596
:1035D000D0733B44002203F8482C97F8763105332A
:1035E00003F5D0733B440F2203F8482C4CF25033C0
:1035F000C7F8943100BF774B93F84130DBB2202BF2
:1036000006D0D7F894315A1EC7F89421002BF2D176
:1036100097F876319BB206339AB207F5AC71642302
:103620006C4803F08BF972E197F87B31102B40F076
:10363000A48097F86C311BB21B021BB203F47063B9
:103640001AB297F86D311BB213431BB29AB2624B98
:103650001A80614B1B88B3F5807F37D93223C7F8B6
:1036600050310023C7F8543140F21273C7F8383193
:103670000023C7F83C310023C7F840310023C7F8C6
:1036800044310823C7F848314CF25033C7F8903121
:1036900000BF4D4801F09EF90346002B06D1D7F834
:1036A00090315A1EC7F89021002BF2D107F59A737A
:1036B00007F5A87207F59C71434801F0BBF8464B2B
:1036C00000221A80454B00221A8020E10023C7F80F
:1036D0008C3112E0D7F88C31023303F5D0733B44C0
:1036E00013F8341C3E4AD7F88C3113440A461A703A
:1036F000D7F88C310133C7F88C31D7F88C31052BD2
:1037000006DC354B1B881A46D7F88C319342E1DB37
:10371000324B06221A803023C7F82C310023C7F819
:10372000303140F21273C7F814310023C7F8183152
:103730000023C7F81C310023C7F820310823C7F83D
:1037400024314CF25033C7F8883100BF1E4801F0D5
:1037500041F90346002B06D1D7F888315A1EC7F825
:103760008821002BF2D107F5887307F5967207F5CB
:103770008A71154801F05EF8C9E097F87B31202B7B
:1037800040F0C580144B1B88002B00F0C080134B09
:103790001A88114B1B889A4280F0B9800E4B1A8808
:1037A0000E4B1B88D31AA7F87831B7F87831072B5E
:1037B00003D8B7F87831DBB200E0072387F8773118
:1037C0000023C7F8843122E0580200200C030020B7
:1037D000C8130020A8020020FC140020FE140020C2
:1037E000FC130020D7F884315A1C504B1B88194613
:1037F000D7F884310B4402F5D0723A4412F8341CE5
:103800004B4AD154D7F884310133C7F8843197F843
:103810007731D7F884219A42E4DB97F877319AB26E
:10382000424B1B8813449AB2404B1A803F4B1A8874
:10383000404B1B889A426AD307F5D073A3F5D07327
:103840000F221A7007F5D073A3F5D073FF225A70B8
:1038500007F5D073A3F5D073F0229A700023C7F850
:10386000803111E0D7F8803103333149D7F8802116
:103870000A44117807F5D072A2F5D072D154D7F866
:1038800080310133C7F880312A4B1B881A46D7F89C
:1038900080319342E6DB274B1B88033307F5D07258
:1038A000A2F5D072F021D154224B1B88043307F5C6
:1038B000D072A2F5D0720021D1541E4B1B88053363
:1038C00007F5D072A2F5D0720F21D1544CF25033CB
:1038D000C7F87C3100BF184B93F84130DBB2202B86
:1038E00006D0D7F87C315A1EC7F87C21002BF2D1C4
:1038F000104B1B8806339AB2394664230E4803F0F6
:103900001DF80C4B00221A80084B00221A8000215F
:103910000A4801F0B6F90346002B7FF4DAAD00E067
:1039200000BF00BF07F5D077BD4680BDFE14002064
:10393000FC130020FC140020A802002058020020E4
:1039400080B500AF044803F0A9F8012203490248FA
:1039500003F07FF800BF80BDA8020020BC13002048
:1039600080B500AF024801F0BDFE00BF80BD00BFC2
:10397000F801002080B500AF124801F0D0F915E041
:10398000114B124A00210F4801F059F80346002B51
:1039900014D10E4B1B68122B08D00C4B1B6840F245
:1039A0001272934202D10848FCF73EFF00210548FD
:1039B00001F067F90346002BE2D100E000BF00BF31
:1039C00080BD00BF80020020D813002068030020C3
:1039D00080B586B000AF7860144A154BD31A7B616E
:1039E0007B693B61134B1B68002B02D1114B124AC0
:1039F0001A60104B1A687B6813443A699A4207D2DE
:103A000003F0D8FF03460C221A604FF0FF3309E0A1
:103A1000084B1B68FB60074B1A687B681344054A18
:103A20001360FB6818461837BD4680BD00000220B1
:103A300000040000001500205016002080B400AFE4
:103A4000064BD3F88830054A43F47003C2F8883037
:103A500000BFBD465DF8047B704700BF00ED00E08D
:103A6000DFF834D00D480E490E4A002302E0D45846
:103A7000C4500433C4188C42F9D30B4A0B4C0023B6
:103A800001E013600432A242FBD3FFF7D7FF03F03B
:103A900097FFFEF71FFD7047000002200000002086
:103AA00080000020308B000880000020501600208D
:103AB000FEE7000080B500AF0E4B1B680D4A43F4D3
:103AC000007313600B4B1B680A4A43F48063136056
:103AD000084B1B68074A43F480731360032001F00E
:103AE00027FC002000F008F8FFF70EFB0023184623
:103AF00080BD00BF003C024080B582B000AF78605E
:103B0000124B1A68124B1B7819464FF47A73B3FBA9
:103B1000F1F3B2FBF3F3184601F03FFC0346002B30
:103B200001D001230EE07B680F2B0AD800227968B0
:103B30004FF0FF3001F007FC064A7B68136000235A
:103B400000E0012318460837BD4680BD2400002050
:103B50002C0000202800002080B400AF064B1B780A
:103B60001A46064B1B681344044A136000BFBD4647
:103B70005DF8047B704700BF2C0000200415002076
:103B800080B400AF034B1B681846BD465DF8047B4C
:103B9000704700BF0415002080B584B000AF786086
:103BA000FFF7EEFFB8607B68FB60FB68B3F1FF3F97
:103BB00005D00A4B1B781A46FB681344FB6000BF14
:103BC000FFF7DEFF0246BB68D31AFA689A42F7D8BD
:103BD00000BF00BF1037BD4680BD00BF2C000020D5
:103BE00080B584B000AF78600023FB737B68002B46
:103BF00001D1012333E07B681B6C002B09D178686D
:103C0000FFF7AAFA7B6800225A647B68002283F8D7
:103C10003C207B681B6C03F01003002B18D17B68E1
:103C20001B6C23F4885323F0020343F002027B68E9
:103C30001A64786800F062FA7B6800225A647B6834
:103C40001B6C23F0030343F001027B681A6401E05C
:103C50000123FB737B68002283F83C20FB7B184622
:103C60001037BD4680BD000080B588B000AFF86059
:103C7000B9607A6000237B610023FB77FB6893F8CF
:103C80003C30012B01D10223EBE0FB68012283F8D9
:103C90003C20FB681B689B6803F00103012B18D0D4
:103CA000FB681B689A68FB681B6842F001029A6017
:103CB0006E4B1B686E4AA2FB03239A0C13465B00F3
:103CC00013447B6102E07B69013B7B617B69002BD4
:103CD000F9D1FB681B689B6803F48073B3F5807FA0
:103CE00007D1FB681B689A68FB681B6822F4807226
:103CF0009A60FB681B689B6803F00103012B40F08E
:103D0000A380FB681B6C23F4E06323F0010343F4FE
:103D10008072FB681A64FB681B685B6803F480634D
:103D2000002B07D0FB681B6C23F4405343F48052F4
:103D3000FB681A64FB681B6C03F48053B3F5805F67
:103D400006D1FB685B6C23F00602FB685A6402E054
:103D5000FB6800225A64FB68002283F83C20454B34
:103D6000BB61FB689B6B444ADA63FB689B6B434A0D
:103D70001A64FB689B6B424ADA64FB681B686FF04D
:103D800022021A60FB681B685A68FB681B6842F0D5
:103D900080625A60FB681B689A68FB681B6842F483
:103DA00080729A60FB68986BFB681B684C331946FD
:103DB000BA687B6801F0ACFB0346FB77BB695B68C4
:103DC00003F01F03002B2AD1FB681B682D4A934286
:103DD00015D0FB681B682C4A934205D1254B5B68C4
:103DE00003F01F03002B0AD0FB681B68274A93428D
:103DF00036D1204B5B6803F01003002B30D1FB68F9
:103E00001B689B6803F04053002B29D1FB681B689B
:103E10009A68FB681B6842F080429A6020E0FB6869
:103E20001B68184A93421BD1FB681B689B6803F010
:103E30004053002B14D1FB681B689A68FB681B6811
:103E400042F080429A600BE0FB681B6C43F010026A
:103E5000FB681A64FB685B6C43F00102FB685A6400
:103E6000FB7F18462037BD4680BD00BF24000020E0
:103E700083DE1B4300230140F5420008AF430008E6
:103E8000CB430008002001400021014000220140F6
:103E900080B483B000AF786000BF0C37BD465DF8DA
:103EA000047B704780B483B000AF786000BF0C37EC
:103EB000BD465DF8047B704780B485B000AF786084
:103EC00039600023BB607B6893F83C30012B01D143
:103ED000022305E17B68012283F83C203B681B68D4
:103EE000092B25D97B681B68D9683B681B689BB286
:103EF0001A4613465B0013441E3B072202FA03F3E3
:103F0000DA437B681B680A40DA607B681B68D96803
:103F10003B689A683B681B689BB2184603465B0087
:103F200003441E3B9A407B681B680A43DA6022E028
:103F30007B681B6819693B681B689BB21A4613466D
:103F40005B001344072202FA03F3DA437B681B6821
:103F50000A401A617B681B6819693B689A683B686C
:103F60001B689BB2184603465B0003449A407B687B
:103F70001B680A431A613B685B68062B24D87B6880
:103F80001B68596B3B685A6813469B001344053BFA
:103F90001F2202FA03F3DA437B681B680A405A6364
:103FA0007B681B68596B3B681B689BB218463B6873
:103FB0005A6813469B001344053B00FA03F27B68E2
:103FC0001B680A435A634CE03B685B680C2B24D89F
:103FD0007B681B68196B3B685A6813469B00134447
:103FE000233B1F2202FA03F3DA437B681B680A4073
:103FF0001A637B681B68196B3B681B689BB2184689
:104000003B685A6813469B001344233B00FA03F2B3
:104010007B681B680A431A6323E07B681B68D96AC4
:104020003B685A6813469B001344413B1F2202FA27
:1040300003F3DA437B681B680A40DA627B681B681B
:10404000D96A3B681B689BB218463B685A6813469E
:104050009B001344413B00FA03F27B681B680A4350
:10406000DA62224BFB607B681B68214A934209D1CC
:104070003B681B68122B05D1FB685B6843F4800228
:10408000FB685A607B681B68194A934223D13B68DE
:104090001B68102B03D03B681B68112B1BD1FB68DE
:1040A0005B6843F40002FB685A603B681B68102B96
:1040B00011D1104B1B68104AA2FB03239A0C134624
:1040C0009B0013445B00BB6002E0BB68013BBB602C
:1040D000BB68002BF9D17B68002283F83C200023C9
:1040E00018461437BD465DF8047B70470023014035
:1040F000002001402400002083DE1B4380B485B0F3
:1041000000AF7860794BFB60FB685B6823F440325A
:10411000FB685A60FB685A687B685B681A43FB68F7
:104120005A607B681B685A687B681B6822F480723F
:104130005A607B681B6859687B681B691A027B6838
:104140001B680A435A607B681B685A687B681B6857
:1041500022F040725A607B681B6859687B689A68D5
:104160007B681B680A435A607B681B689A687B6897
:104170001B6822F400629A607B681B6899687B6800
:10418000DA687B681B680A439A607B689B6A584AB6
:10419000934222D07B681B689A687B681B6822F078
:1041A00070629A607B681B6899687B689A6A7B6812
:1041B0001B680A439A607B681B689A687B681B6867
:1041C00022F040529A607B681B6899687B68DA6AC3
:1041D0007B681B680A439A600FE07B681B689A68DB
:1041E0007B681B6822F070629A607B681B689A6823
:1041F0007B681B6822F040529A607B681B689A6853
:104200007B681B6822F002029A607B681B689968D1
:104210007B681B7E5A007B681B680A439A607B6838
:1042200093F82030002B1BD07B681B685A687B6892
:104230001B6842F400625A607B681B685A687B689E
:104240001B6822F460425A607B681B6859687B686F
:104250005B6A013B5A037B681B680A435A6007E0AC
:104260007B681B685A687B681B6822F400625A608E
:104270007B681B68DA6A7B681B6822F47002DA626A
:104280007B681B68D96A7B68DB69013B1A057B6820
:104290001B680A43DA627B681B689A687B681B6844
:1042A00022F400729A607B681B6899687B6893F8B7
:1042B00030305A027B681B680A439A607B681B682F
:1042C0009A687B681B6822F480629A607B681B682E
:1042D00099687B685B699A027B681B680A439A60ED
:1042E00000BF1437BD465DF8047B704700230140D2
:1042F0000100000F80B584B000AF78607B689B6BD5
:10430000FB60FB681B6C03F05003002B3CD1FB6887
:104310001B6C43F40072FB681A64FB681B689B68A3
:1043200003F04053002B2BD1FB681B7E002B27D1C1
:10433000FB681B68DB6A03F47003002B06D0FB6884
:104340001B689B6803F48063002B19D1FB681B6812
:104350005A68FB681B6822F020025A60FB681B6CDD
:1043600023F48072FB681A64FB681B6C03F48053AF
:10437000002B05D1FB681B6C43F00102FB681A643B
:10438000F868FEF737FD0EE0FB681B6C03F01003C6
:10439000002B03D0F868FFF785FD04E0FB689B6BFA
:1043A000DB6C7868984700BF1037BD4680BD80B58C
:1043B00084B000AF78607B689B6BFB60F868FFF7A8
:1043C00067FD00BF1037BD4680BD80B584B000AF2B
:1043D00078607B689B6BFB60FB6840221A64FB681B
:1043E0005B6C43F00402FB685A64F868FFF75AFDFF
:1043F00000BF1037BD4680BD80B584B000AF786087
:104400007B68002B01D10123EDE07B6893F820301D
:10441000DBB2002B02D17868FEF7F2FE7B681B68E6
:104420001A687B681B6842F001021A60FFF7A8FB5C
:10443000F86012E0FFF7A4FB0246FB68D31A0A2BD0
:104440000BD97B685B6A43F400327B685A627B68F5
:10445000052283F820200123C5E07B681B685B6888
:1044600003F00103002BE5D07B681B681A687B68AA
:104470001B6822F002021A60FFF782FBF86012E06C
:10448000FFF77EFB0246FB68D31A0A2B0BD97B6829
:104490005B6A43F400327B685A627B68052283F8CA
:1044A000202001239FE07B681B685B6803F0020308
:1044B000002BE5D17B681B7E012B08D17B681B6834
:1044C0001A687B681B6842F080021A6007E07B680C
:1044D0001B681A687B681B6822F080021A607B6880
:1044E0005B7E012B08D17B681B681A687B681B68A0
:1044F00042F040021A6007E07B681B681A687B681C
:104500001B6822F040021A607B689B7E012B08D159
:104510007B681B681A687B681B6842F020021A607F
:1045200007E07B681B681A687B681B6822F0200222
:104530001A607B68DB7E012B08D17B681B681A68D8
:104540007B681B6822F010021A6007E07B681B681A
:104550001A687B681B6842F010021A607B681B7F38
:10456000012B08D17B681B681A687B681B6842F0C6
:1045700008021A6007E07B681B681A687B681B6882
:1045800022F008021A607B685B7F012B08D17B68F0
:104590001B681A687B681B6842F004021A6007E017
:1045A0007B681B681A687B681B6822F004021A602B
:1045B0007B689A687B68DB681A437B681B691A43CF
:1045C0007B685B6942EA03017B685B685A1E7B6813
:1045D0001B680A43DA617B6800225A627B68012209
:1045E00083F82020002318461037BD4680BD000008
:1045F00080B487B000AF786039607B6893F8203072
:10460000FB75FB7D012B03D0FB7D022B40F0BE80B0
:10461000654B3B613B69D3F8003243F001023B69D3
:10462000C3F800223B69D3F8003223F47C523B6983
:10463000C3F800223B69D3F800223B685B6A1B0287
:104640001A433B69C3F800223B685B6903F01F0310
:10465000012202FA03F3FB603B69D3F81C22FB68DA
:10466000DB431A403B69C3F81C223B68DB69002B23
:1046700023D13B69D3F80C22FB68DB431A403B692A
:10468000C3F80C223B68DB6819043B685B689BB28B
:104690003A68526919433B69483243F832103B6823
:1046A0009B6819043B681B689AB23B685B690A43C4
:1046B00039694833DB000B445A603B68DB69012BE6
:1046C00022D13B69D3F80C22FB681A433B69C3F83B
:1046D0000C223B681B6819043B685B689BB23A6814
:1046E000526919433B69483243F832103B689B6872
:1046F00019043B68DB689AB23B685B690A43396915
:104700004833DB000B445A603B689B69002B09D19E
:104710003B69D3F80422FB68DB431A403B69C3F8CA
:10472000042207E03B69D3F80422FB681A433B6983
:10473000C3F804223B681B69002B09D13B69D3F8FD
:104740001422FB68DB431A403B69C3F8142207E0DC
:104750003B69D3F81422FB681A433B69C3F814225F
:104760003B681B6A012B07D13B69D3F81C22FB680D
:104770001A433B69C3F81C223B69D3F8003223F08B
:1047800001023B69C3F80022002306E07B685B6AF4
:1047900043F480227B685A62012318461C37BD46C9
:1047A0005DF8047B704700BF0064004080B584B0B2
:1047B00000AF78607B6893F82030DBB2012B2ED1FC
:1047C0007B68022283F820207B681B681A687B685C
:1047D0001B6822F001021A60FFF7D2F9F86012E0BC
:1047E000FFF7CEF90246FB68D31A0A2B0BD97B6878
:1047F0005B6A43F400327B685A627B68052283F867
:104800002020012312E07B681B685B6803F0010332
:10481000002BE5D17B6800225A62002306E07B680A
:104820005B6A43F400227B685A6201231846103702
:10483000BD4680BD80B489B000AFF860B9607A60D1
:104840003B60FB6893F82030FB77FB681B689B6834
:10485000BB61FB7F012B03D0FB7F022B40F0AD80BF
:10486000BB6903F08063002B0AD1BB6903F00063CE
:10487000002B05D1BB6903F08053002B00F095801D
:10488000BB691B0E03F003037B6101227B699A4025
:104890003B681A60BB689B68002B0DD1BB681B6826
:1048A0005A05BB68DB68F96809681A437B691833E5
:1048B0001B010B441A600FE0BB685B68DA00BB6841
:1048C0009B681A43BB68DB68F96809681A437B690F
:1048D00018331B010B441A60FB681968BB681A691E
:1048E0007B6918331B010B4404331A60BB681B7DC2
:1048F000012B11D1FB681A687B6918331B01134423
:1049000004331B68FA68116843F480727B691833BA
:104910001B010B4404331A607B6807331B781A06AB
:104920007B6806331B781B041A437B6805331B78AE
:104930001B0213437A68043212781046FA68116831
:1049400043EA00027B691B010B4403F5C6731A603E
:104950007B6803331B781A067B6802331B781B04C1
:104960001A437B6801331B781B0213437A68127861
:104970001046FA68116843EA00027B691B010B4488
:1049800003F5C4731A60FB681A687B6918331B014E
:1049900013441B68FA68116843F001027B691833FD
:1049A0001B010B441A6000230EE0FB685B6A43F4B2
:1049B0000012FB685A62012306E0FB685B6A43F45D
:1049C0008022FB685A62012318462437BD465DF8F1
:1049D000047B704780B485B000AF78600023FB6033
:1049E0007B6893F82030FB72FB7A012B02D0FB7AB4
:1049F000022B1DD17B681B689B6803F08063002B32
:104A000002D0FB680133FB607B681B689B6803F086
:104A10000063002B02D0FB680133FB607B681B68DE
:104A20009B6803F08053002B02D0FB680133FB60CE
:104A3000FB6818461437BD465DF8047B704780B4A8
:104A400087B000AFF860B9607A603B60FB6893F8AC
:104A50002030FB75FB7D012B03D0FB7D022B40F04A
:104A60000381BB68002B0ED1FB681B68DB6803F079
:104A70000303002B16D1FB685B6A43F40012FB684A
:104A80005A620123F7E0FB681B681B6903F003030C
:104A9000002B07D1FB685B6A43F40012FB685A6283
:104AA0000123E8E0FB681A68BB681B331B01134451
:104AB0001B6803F004027B689A607B689B68002B8C
:104AC0000CD1FB681A68BB681B331B0113441B68BD
:104AD0005B0DC3F30A027B681A600BE0FB681A687F
:104AE000BB681B331B0113441B68DB0823F06042C7
:104AF0007B685A60FB681A68BB681B331B01134450
:104B00001B6803F002027B68DA60FB681A68BB6806
:104B10001B331B01134404331B6803F00803002BF1
:104B200003D07B6808221A610BE0FB681A68BB6837
:104B30001B331B01134404331B6803F00F027B6813
:104B40001A61FB681A68BB681B331B0113440433EA
:104B50001B681B0ADAB27B689A61FB681A68BB683B
:104B60001B331B01134404331B681B0C9AB27B6874
:104B70005A61FB681A68BB681B01134403F5DC73B8
:104B80001B68DAB23B681A70FB681A68BB681B01C5
:104B9000134403F5DC731B681A0A3B680133D2B275
:104BA0001A70FB681A68BB681B01134403F5DC73B9
:104BB0001B681A0C3B680233D2B21A70FB681A6881
:104BC000BB681B01134403F5DC731B681A0E3B68BA
:104BD0000333D2B21A70FB681A68BB681B01134416
:104BE00003F5DE731A683B680433D2B21A70FB68AF
:104BF0001A68BB681B01134403F5DE731B681A0AAD
:104C00003B680533D2B21A70FB681A68BB681B0197
:104C1000134403F5DE731B681A0C3B680633D2B2EB
:104C20001A70FB681A68BB681B01134403F5DE7336
:104C30001B681A0E3B680733D2B21A70BB68002B90
:104C400008D1FB681B68DA68FB681B6842F0200229
:104C5000DA6007E0FB681B681A69FB681B6842F0B2
:104C600020021A61002306E0FB685B6A43F480229D
:104C7000FB685A62012318461C37BD465DF8047B69
:104C8000704780B485B000AF786039600023FB6066
:104C90007B6893F82030FB72FB7A012B02D0FB7A01
:104CA000022B0FD13B68002B06D17B681B68DB68A9
:104CB00003F00303FB6005E07B681B681B6903F0DE
:104CC0000303FB60FB6818461437BD465DF8047BA0
:104CD000704780B485B000AF786039607B6893F826
:104CE0002030FB73FB7B012B02D0FB7B022B09D115
:104CF0007B681B6859697B681B683A680A435A617C
:104D0000002306E07B685B6A43F480227B685A627A
:104D1000012318461437BD465DF8047B704780B503
:104D20008AB000AF786000237B627B681B685B6998
:104D30003B627B681B685B68FB617B681B689B68E8
:104D4000BB617B681B68DB687B617B681B681B69D8
:104D50003B617B681B689B69FB603B6A03F0010356
:104D6000002B7CD0BB6903F00103002B23D07B68B0
:104D70001B6801229A60BB6903F00203002B03D079
:104D8000786800F083F916E0BB6903F00403002B98
:104D900004D07B6A43F400637B620CE0BB6903F0E0
:104DA0000803002B04D07B6A43F480537B6202E04B
:104DB000786800F089F9BB6903F48073002B24D074
:104DC0007B681B684FF480729A60BB6903F40073C0
:104DD000002B03D0786800F063F916E0BB6903F498
:104DE0008063002B04D07B6A43F400537B620CE0A9
:104DF000BB6903F40063002B04D07B6A43F4804357
:104E00007B6202E0786800F069F9BB6903F48033E3
:104E1000002B24D07B681B684FF480329A60BB69FA
:104E200003F40033002B03D0786800F043F916E058
:104E3000BB6903F48023002B04D07B6A43F4004356
:104E40007B620CE0BB6903F40023002B04D07B6A77
:104E500043F480337B6202E0786800F049F93B6AF2
:104E600003F00803002B0CD07B6903F01003002B28
:104E700007D07B6A43F400737B627B681B68102257
:104E8000DA603B6A03F00403002B0BD07B6903F06C
:104E90000803002B06D07B681B680822DA6078685C
:104EA00000F03AF93B6A03F00203002B09D07B685B
:104EB0001B68DB6803F00303002B02D0786800F066
:104EC00021F93B6A03F04003002B0CD03B6903F04F
:104ED0001003002B07D07B6A43F480637B627B68FE
:104EE0001B6810221A613B6A03F02003002B0BD0D1
:104EF0003B6903F00803002B06D07B681B6808227F
:104F00001A61786800F01CF93B6A03F01003002B6B
:104F100009D07B681B681B6903F00303002B02D0D8
:104F2000786800F003F93B6A03F40033002B0BD0E0
:104F3000FB6903F01003002B06D07B681B6810226E
:104F40005A60786800F006F93B6A03F48033002B5E
:104F50000BD0FB6903F00803002B06D07B681B68AD
:104F600008225A60786800F0FFF83B6A03F40043B7
:104F7000002B7BD0FB6903F00403002B72D03B6A4B
:104F800003F48073002B08D0FB6803F00103002BAF
:104F900003D07B6A43F001037B623B6A03F4007336
:104FA000002B08D0FB6803F00203002B03D07B6AC0
:104FB00043F002037B623B6A03F48063002B08D05A
:104FC000FB6803F00403002B03D07B6A43F0040367
:104FD0007B623B6A03F40063002B43D0FB6803F061
:104FE0007003002B3ED0FB6803F07003602B2BD0C6
:104FF000602B2ED8502B22D0502B2AD8402B19D0E2
:10500000402B26D8302B10D0302B22D8102B02D09A
:10501000202B05D01DE07B6A43F008037B6219E07A
:105020007B6A43F010037B6214E07B6A43F0200349
:105030007B620FE07B6A43F040037B620AE07B6A9D
:1050400043F080037B6205E07B6A43F480737B62FC
:1050500000E000BF7B681B689A697B681B6822F0D0
:1050600070029A617B681B6804225A607B6A002B7D
:1050700008D07B685A6A7B6A1A437B685A627868F0
:1050800000F07CF800BF2837BD4680BD80B483B0F7
:1050900000AF786000BF0C37BD465DF8047B7047F9
:1050A00080B483B000AF786000BF0C37BD465DF8B8
:1050B000047B704780B483B000AF786000BF0C37CA
:1050C000BD465DF8047B704780B483B000AF786064
:1050D00000BF0C37BD465DF8047B704780B483B0D9
:1050E00000AF786000BF0C37BD465DF8047B7047A9
:1050F00080B483B000AF786000BF0C37BD465DF868
:10510000047B704780B483B000AF786000BF0C3779
:10511000BD465DF8047B704780B483B000AF786013
:1051200000BF0C37BD465DF8047B704780B483B088
:1051300000AF786000BF0C37BD465DF8047B704758
:1051400080B483B000AF786000BF0C37BD465DF817
:10515000047B704780B483B000AF786000BF0C3729
:10516000BD465DF8047B704780B483B000AF7860C3
:1051700000BF0C37BD465DF8047B704780B483B038
:1051800000AF786000BF0C37BD465DF8047B704708
:1051900080B485B000AF78607B6803F00703FB60E4
:1051A0000C4BDB68BB60BA684FF6FF031340BB6073
:1051B000FB681A02BB68134343F0BF6343F4003338
:1051C000BB60044ABB68D36000BF1437BD465DF8BE
:1051D000047B704700ED00E080B400AF044BDB6857
:1051E0001B0A03F007031846BD465DF8047B7047B1
:1051F00000ED00E080B483B000AF0346FB7197F987
:105200000730002B0BDBFB7903F01F02074997F9EE
:1052100007305B09012000FA02F241F8232000BFA9
:105220000C37BD465DF8047B704700BF00E100E02D
:1052300080B483B000AF03463960FB7197F9073043
:10524000002B0ADB3B68DAB20C4997F907301201F0
:10525000D2B20B4483F800230AE03B68DAB2084973
:10526000FB7903F00F03043B1201D2B20B441A7610
:1052700000BF0C37BD465DF8047B704700E100E0DD
:1052800000ED00E080B489B000AFF860B9607A60EA
:10529000FB6803F00703FB61FB69C3F10703042B01
:1052A00028BF0423BB61FB690433062B02D9FB69C9
:1052B000033B00E000237B614FF0FF32BB6902FA41
:1052C00003F3DA43BB681A407B699A404FF0FF3121
:1052D0007B6901FA03F3D9437B680B4013431846FB
:1052E0002437BD465DF8047B7047000080B582B06E
:1052F00000AF78607B68013BB3F1807F01D301236D
:105300000FE00A4A7B68013B53600F214FF0FF30EA
:10531000FFF78EFF054B00229A60044B07221A60AC
:10532000002318460837BD4680BD00BF10E000E0EE
:1053300080B582B000AF78607868FFF729FF00BFC2
:105340000837BD4680BD80B586B000AF0346B96062
:105350007A60FB7300237B61FFF73EFF78617A6818
:10536000B9687869FFF78EFF024697F90F3011464A
:105370001846FFF75DFF00BF1837BD4680BD80B5FA
:1053800082B000AF0346FB7197F907301846FFF76C
:1053900031FF00BF0837BD4680BD80B582B000AF89
:1053A00078607868FFF7A2FF034618460837BD46C5
:1053B00080BD000080B586B000AF786000237B61BF
:1053C000FEF7DEFB38617B68002B01D1012399E0F9
:1053D0007B68022283F835207B68002283F8342022
:1053E0007B681B681A687B681B6822F001021A60E0
:1053F0000FE0FEF7C5FB02463B69D31A052B08D91F
:105400007B6820225A657B68032283F835200323BA
:1054100078E07B681B681B6803F00103002BE8D170
:105420007B681B681B687B617A69384B13407B6122
:105430007B685A687B689B681A437B68DB681A4301
:105440007B681B691A437B685B691A437B689B69AD
:105450001A437B68DB691A437B681B6A13437A69CA
:1054600013437B617B685B6A042B07D17B68DA6A34
:105470007B681B6B13437A6913437B617B681B68F2
:105480007A691A607B681B685B697B617B6923F0C2
:1054900007037B617B685B6A7A6913437B617B6886
:1054A0005B6A042B17D17B689B6A7A6913437B6123
:1054B0007B68DB6A002B0ED0786800F001FB0346A6
:1054C000002B08D07B6840225A657B68012283F854
:1054D0003520012316E07B681B687A695A61786879
:1054E00000F0B8FA0346FB607B68DB6D3F229A4010
:1054F000FB689A607B6800225A657B68012283F80A
:105500003520002318461837BD4680BD3F8010F077
:1055100080B586B000AFF860B9607A603B60002368
:10552000FB75FB689B6D3B61FB6893F83430012B86
:1055300001D1022340E0FB68012283F83420FB689C
:1055400093F83530DBB2012B2FD1FB68022283F8B0
:105550003520FB6800225A653B687A68B968F868AC
:1055600000F04AFAFB68DB6D3F229A403B699A6083
:10557000FB681B681A68FB681B6842F016021A6019
:10558000FB681B6C002B07D0FB681B681A68FB6864
:105590001B6842F008021A60FB681B681A68FB6807
:1055A0001B6842F001021A6005E0FB68002283F8E4
:1055B00034200223FB75FB7D18461837BD4680BD9D
:1055C00080B584B000AF78607B689B6DFB60FEF7B0
:1055D000D7FAB8607B6893F83530DBB2022B08D07D
:1055E0007B6880225A657B68002283F8342001237F
:1055F00052E07B681B681A687B681B6822F0160201
:105600001A607B681B685A697B681B6822F08002FD
:105610005A617B681B6C002B03D17B689B6C002B51
:1056200007D07B681B681A687B681B6822F0080239
:105630001A607B681B681A687B681B6822F001028D
:105640001A6013E0FEF79CFA0246BB68D31A052BDA
:105650000CD97B6820225A657B68032283F83520A9
:105660007B68002283F83420032315E07B681B68E5
:105670001B6803F00103002BE4D17B68DB6D3F2244
:105680009A40FB689A607B68012283F835207B682A
:10569000002283F83420002318461037BD4680BD11
:1056A00080B483B000AF78607B6893F83530DBB2AC
:1056B000022B04D07B6880225A6501230CE07B68B2
:1056C000052283F835207B681B681A687B681B6895
:1056D00022F001021A60002318460C37BD465DF81F
:1056E000047B704780B586B000AF78600023BB6054
:1056F0008E4B1B688E4AA2FB03239B0A7B617B684F
:105700009B6D3B613B691B68FB607B68DB6D08221E
:105710009A40FB681340002B1AD07B681B681B68FB
:1057200003F00403002B13D07B681B681A687B68A6
:105730001B6822F004021A607B68DB6D08229A4025
:105740003B699A607B685B6D43F001027B685A6538
:105750007B68DB6D01229A40FB681340002B12D05E
:105760007B681B685B6903F08003002B0BD07B68B0
:10577000DB6D01229A403B699A607B685B6D43F068
:1057800002027B685A657B68DB6D04229A40FB68E5
:105790001340002B12D07B681B681B6803F00203C8
:1057A000002B0BD07B68DB6D04229A403B699A602A
:1057B0007B685B6D43F004027B685A657B68DB6D38
:1057C00010229A40FB681340002B43D07B681B6873
:1057D0001B6803F00803002B3CD07B68DB6D1022B4
:1057E0009A403B699A607B681B681B6803F48023BE
:1057F000002B18D07B681B681B6803F40023002B68
:1058000008D17B681B6C002B24D07B681B6C7868EC
:1058100098471FE07B689B6C002B1BD07B689B6CC0
:105820007868984716E07B681B681B6803F48073F0
:10583000002B07D17B681B681A687B681B6822F005
:1058400008021A607B681B6C002B03D07B681B6C02
:10585000786898477B68DB6D20229A40FB6813408C
:10586000002B00F08F807B681B681B6803F010031F
:10587000002B00F087807B68DB6D20229A403B691B
:105880009A607B6893F83530DBB2052B36D17B68A4
:105890001B681A687B681B6822F016021A607B6816
:1058A0001B685A697B681B6822F080025A617B681A
:1058B0001B6C002B03D17B689B6C002B07D07B6893
:1058C0001B681A687B681B6822F008021A607B68F4
:1058D000DB6D3F229A403B699A607B68012283F826
:1058E00035207B68002283F834207B681B6D002BF9
:1058F0007ED07B681B6D7868984779E07B681B6871
:105900001B6803F48023002B1DD07B681B681B6879
:1059100003F40023002B0DD17B685B6C002B31D08E
:105920007B685B6C786898472CE000BF24000020FF
:10593000B5814E1B7B68DB6B002B23D07B68DB6B58
:10594000786898471EE07B681B681B6803F48073C7
:10595000002B0FD17B681B681A687B681B6822F0DC
:1059600010021A607B68012283F835207B680022D0
:1059700083F834207B68DB6B002B03D07B68DB6B08
:10598000786898477B685B6D002B32D07B685B6DD5
:1059900003F00103002B22D07B68052283F8352019
:1059A0007B681B681A687B681B6822F001021A601A
:1059B000BB680133BB607A699A4207D37B681B6876
:1059C0001B6803F00103002BF2D100E000BF7B68ED
:1059D000012283F835207B68002283F834207B681D
:1059E000DB6C002B05D07B68DB6C7868984700E0A7
:1059F00000BF1837BD4680BD80B485B000AFF860E9
:105A0000B9607A603B60FB681B681A68FB681B68BA
:105A100022F480221A60FB681B683A685A60FB68AF
:105A20009B68402B08D1FB681B687A689A60FB680A
:105A30001B68BA68DA6007E0FB681B68BA689A609E
:105A4000FB681B687A68DA6000BF1437BD465DF8F2
:105A5000047B704780B485B000AF78607B681B68BA
:105A6000DBB2103B144AA2FB03231B09FB60134A61
:105A7000FB6813441B781A467B68DA65FB68032BC6
:105A800009D97B681B6823F47F7323F003031A1D75
:105A90007B689A6507E07B681B6823F47F7323F0BB
:105AA00003037A6893657B689B6D18461437BD467F
:105AB0005DF8047B704700BFABAAAAAAE48A00087D
:105AC00080B485B000AF78600023FB737B689B6A6D
:105AD000BB607B689B69002B1FD1BB68032B56D82A
